{
  "_format": "hh-sol-artifact-1",
  "contractName": "RevestLiquidDriver",
  "sourceName": "contracts/RevestConvexFrax.sol",
  "abi": [
    {
      "inputs": [
        {
          "internalType": "address",
          "name": "_provider",
          "type": "address"
        }
      ],
      "stateMutability": "nonpayable",
      "type": "constructor"
    },
    {
      "anonymous": false,
      "inputs": [
        {
          "indexed": true,
          "internalType": "address",
          "name": "mintTo",
          "type": "address"
        },
        {
          "indexed": true,
          "internalType": "address",
          "name": "token",
          "type": "address"
        },
        {
          "indexed": false,
          "internalType": "uint256",
          "name": "tokenId",
          "type": "uint256"
        },
        {
          "indexed": false,
          "internalType": "uint256",
          "name": "amountTokens",
          "type": "uint256"
        },
        {
          "indexed": true,
          "internalType": "uint256",
          "name": "fnftId",
          "type": "uint256"
        },
        {
          "indexed": false,
          "internalType": "bytes",
          "name": "extraData",
          "type": "bytes"
        }
      ],
      "name": "DepositERC1155OutputReceiver",
      "type": "event"
    },
    {
      "anonymous": false,
      "inputs": [
        {
          "indexed": true,
          "internalType": "address",
          "name": "mintTo",
          "type": "address"
        },
        {
          "indexed": true,
          "internalType": "address",
          "name": "token",
          "type": "address"
        },
        {
          "indexed": false,
          "internalType": "uint256",
          "name": "amountTokens",
          "type": "uint256"
        },
        {
          "indexed": true,
          "internalType": "uint256",
          "name": "fnftId",
          "type": "uint256"
        },
        {
          "indexed": false,
          "internalType": "bytes",
          "name": "extraData",
          "type": "bytes"
        }
      ],
      "name": "DepositERC20OutputReceiver",
      "type": "event"
    },
    {
      "anonymous": false,
      "inputs": [
        {
          "indexed": true,
          "internalType": "address",
          "name": "mintTo",
          "type": "address"
        },
        {
          "indexed": true,
          "internalType": "address",
          "name": "token",
          "type": "address"
        },
        {
          "indexed": false,
          "internalType": "uint256[]",
          "name": "tokenIds",
          "type": "uint256[]"
        },
        {
          "indexed": true,
          "internalType": "uint256",
          "name": "fnftId",
          "type": "uint256"
        },
        {
          "indexed": false,
          "internalType": "bytes",
          "name": "extraData",
          "type": "bytes"
        }
      ],
      "name": "DepositERC721OutputReceiver",
      "type": "event"
    },
    {
      "anonymous": false,
      "inputs": [
        {
          "indexed": true,
          "internalType": "address",
          "name": "previousOwner",
          "type": "address"
        },
        {
          "indexed": true,
          "internalType": "address",
          "name": "newOwner",
          "type": "address"
        }
      ],
      "name": "OwnershipTransferred",
      "type": "event"
    },
    {
      "anonymous": false,
      "inputs": [
        {
          "indexed": true,
          "internalType": "address",
          "name": "caller",
          "type": "address"
        },
        {
          "indexed": true,
          "internalType": "address",
          "name": "token",
          "type": "address"
        },
        {
          "indexed": false,
          "internalType": "uint256",
          "name": "tokenId",
          "type": "uint256"
        },
        {
          "indexed": false,
          "internalType": "uint256",
          "name": "amountTokens",
          "type": "uint256"
        },
        {
          "indexed": true,
          "internalType": "uint256",
          "name": "fnftId",
          "type": "uint256"
        },
        {
          "indexed": false,
          "internalType": "bytes",
          "name": "extraData",
          "type": "bytes"
        }
      ],
      "name": "WithdrawERC1155OutputReceiver",
      "type": "event"
    },
    {
      "anonymous": false,
      "inputs": [
        {
          "indexed": true,
          "internalType": "address",
          "name": "caller",
          "type": "address"
        },
        {
          "indexed": true,
          "internalType": "address",
          "name": "token",
          "type": "address"
        },
        {
          "indexed": false,
          "internalType": "uint256",
          "name": "amountTokens",
          "type": "uint256"
        },
        {
          "indexed": true,
          "internalType": "uint256",
          "name": "fnftId",
          "type": "uint256"
        },
        {
          "indexed": false,
          "internalType": "bytes",
          "name": "extraData",
          "type": "bytes"
        }
      ],
      "name": "WithdrawERC20OutputReceiver",
      "type": "event"
    },
    {
      "anonymous": false,
      "inputs": [
        {
          "indexed": true,
          "internalType": "address",
          "name": "caller",
          "type": "address"
        },
        {
          "indexed": true,
          "internalType": "address",
          "name": "token",
          "type": "address"
        },
        {
          "indexed": false,
          "internalType": "uint256[]",
          "name": "tokenIds",
          "type": "uint256[]"
        },
        {
          "indexed": true,
          "internalType": "uint256",
          "name": "fnftId",
          "type": "uint256"
        },
        {
          "indexed": false,
          "internalType": "bytes",
          "name": "extraData",
          "type": "bytes"
        }
      ],
      "name": "WithdrawERC721OutputReceiver",
      "type": "event"
    },
    {
      "inputs": [],
      "name": "CONVEX_DEPOSIT_TOKEN",
      "outputs": [
        {
          "internalType": "address",
          "name": "",
          "type": "address"
        }
      ],
      "stateMutability": "view",
      "type": "function"
    },
    {
      "inputs": [],
      "name": "CURVE_LP",
      "outputs": [
        {
          "internalType": "address",
          "name": "",
          "type": "address"
        }
      ],
      "stateMutability": "view",
      "type": "function"
    },
    {
      "inputs": [],
      "name": "METADATA",
      "outputs": [
        {
          "internalType": "string",
          "name": "",
          "type": "string"
        }
      ],
      "stateMutability": "view",
      "type": "function"
    },
    {
      "inputs": [],
      "name": "REWARDS",
      "outputs": [
        {
          "internalType": "address",
          "name": "",
          "type": "address"
        }
      ],
      "stateMutability": "view",
      "type": "function"
    },
    {
      "inputs": [],
      "name": "STAKING_ADDRESS",
      "outputs": [
        {
          "internalType": "address",
          "name": "",
          "type": "address"
        }
      ],
      "stateMutability": "view",
      "type": "function"
    },
    {
      "inputs": [],
      "name": "STAKING_TOKEN",
      "outputs": [
        {
          "internalType": "address",
          "name": "",
          "type": "address"
        }
      ],
      "stateMutability": "view",
      "type": "function"
    },
    {
      "inputs": [],
      "name": "TEMPLATE",
      "outputs": [
        {
          "internalType": "address",
          "name": "",
          "type": "address"
        }
      ],
      "stateMutability": "view",
      "type": "function"
    },
    {
      "inputs": [],
      "name": "TOKEN",
      "outputs": [
        {
          "internalType": "address",
          "name": "",
          "type": "address"
        }
      ],
      "stateMutability": "view",
      "type": "function"
    },
    {
      "inputs": [],
      "name": "addressRegistry",
      "outputs": [
        {
          "internalType": "address",
          "name": "",
          "type": "address"
        }
      ],
      "stateMutability": "view",
      "type": "function"
    },
    {
      "inputs": [
        {
          "internalType": "uint256",
          "name": "fnftId",
          "type": "uint256"
        }
      ],
      "name": "getAddressForFNFT",
      "outputs": [
        {
          "internalType": "address",
          "name": "smartWallAdd",
          "type": "address"
        }
      ],
      "stateMutability": "view",
      "type": "function"
    },
    {
      "inputs": [],
      "name": "getAddressRegistry",
      "outputs": [
        {
          "internalType": "address",
          "name": "",
          "type": "address"
        }
      ],
      "stateMutability": "view",
      "type": "function"
    },
    {
      "inputs": [
        {
          "internalType": "uint256",
          "name": "",
          "type": "uint256"
        }
      ],
      "name": "getAsset",
      "outputs": [
        {
          "internalType": "address",
          "name": "",
          "type": "address"
        }
      ],
      "stateMutability": "pure",
      "type": "function"
    },
    {
      "inputs": [
        {
          "internalType": "uint256",
          "name": "",
          "type": "uint256"
        }
      ],
      "name": "getCustomMetadata",
      "outputs": [
        {
          "internalType": "string",
          "name": "",
          "type": "string"
        }
      ],
      "stateMutability": "view",
      "type": "function"
    },
    {
      "inputs": [
        {
          "internalType": "uint256",
          "name": "fnftId",
          "type": "uint256"
        }
      ],
      "name": "getOutputDisplayValues",
      "outputs": [
        {
          "internalType": "bytes",
          "name": "displayData",
          "type": "bytes"
        }
      ],
      "stateMutability": "view",
      "type": "function"
    },
    {
      "inputs": [
        {
          "internalType": "uint256",
          "name": "fnftId",
          "type": "uint256"
        }
      ],
      "name": "getValue",
      "outputs": [
        {
          "internalType": "uint256",
          "name": "",
          "type": "uint256"
        }
      ],
      "stateMutability": "view",
      "type": "function"
    },
    {
      "inputs": [
        {
          "internalType": "uint256",
          "name": "fnftId",
          "type": "uint256"
        },
        {
          "internalType": "uint256",
          "name": "amountToDeposit",
          "type": "uint256"
        },
        {
          "internalType": "uint256",
          "name": "",
          "type": "uint256"
        },
        {
          "internalType": "address",
          "name": "caller",
          "type": "address"
        }
      ],
      "name": "handleAdditionalDeposit",
      "outputs": [],
      "stateMutability": "nonpayable",
      "type": "function"
    },
    {
      "inputs": [
        {
          "internalType": "uint256",
          "name": "",
          "type": "uint256"
        },
        {
          "internalType": "uint256[]",
          "name": "",
          "type": "uint256[]"
        },
        {
          "internalType": "address",
          "name": "",
          "type": "address"
        },
        {
          "internalType": "bool",
          "name": "",
          "type": "bool"
        }
      ],
      "name": "handleFNFTRemaps",
      "outputs": [],
      "stateMutability": "pure",
      "type": "function"
    },
    {
      "inputs": [
        {
          "internalType": "uint256",
          "name": "fnftId",
          "type": "uint256"
        },
        {
          "internalType": "uint256[]",
          "name": "proportions",
          "type": "uint256[]"
        },
        {
          "internalType": "uint256",
          "name": "quantity",
          "type": "uint256"
        },
        {
          "internalType": "address",
          "name": "caller",
          "type": "address"
        }
      ],
      "name": "handleSplitOperation",
      "outputs": [],
      "stateMutability": "nonpayable",
      "type": "function"
    },
    {
      "inputs": [
        {
          "internalType": "uint256",
          "name": "fnftId",
          "type": "uint256"
        },
        {
          "internalType": "uint256",
          "name": "expiration",
          "type": "uint256"
        },
        {
          "internalType": "address",
          "name": "caller",
          "type": "address"
        }
      ],
      "name": "handleTimelockExtensions",
      "outputs": [],
      "stateMutability": "nonpayable",
      "type": "function"
    },
    {
      "inputs": [
        {
          "internalType": "uint256",
          "name": "",
          "type": "uint256"
        }
      ],
      "name": "kekIds",
      "outputs": [
        {
          "internalType": "bytes32",
          "name": "",
          "type": "bytes32"
        }
      ],
      "stateMutability": "view",
      "type": "function"
    },
    {
      "inputs": [
        {
          "internalType": "uint256",
          "name": "endTime",
          "type": "uint256"
        },
        {
          "internalType": "uint256",
          "name": "amountToLock",
          "type": "uint256"
        }
      ],
      "name": "lockTokens",
      "outputs": [
        {
          "internalType": "uint256",
          "name": "fnftId",
          "type": "uint256"
        }
      ],
      "stateMutability": "payable",
      "type": "function"
    },
    {
      "inputs": [],
      "name": "owner",
      "outputs": [
        {
          "internalType": "address",
          "name": "",
          "type": "address"
        }
      ],
      "stateMutability": "view",
      "type": "function"
    },
    {
      "inputs": [
        {
          "internalType": "uint256",
          "name": "fnftId",
          "type": "uint256"
        },
        {
          "internalType": "address",
          "name": "",
          "type": "address"
        },
        {
          "internalType": "address payable",
          "name": "caller",
          "type": "address"
        },
        {
          "internalType": "uint256",
          "name": "",
          "type": "uint256"
        }
      ],
      "name": "receiveRevestOutput",
      "outputs": [],
      "stateMutability": "nonpayable",
      "type": "function"
    },
    {
      "inputs": [
        {
          "internalType": "uint256",
          "name": "fnftId",
          "type": "uint256"
        },
        {
          "internalType": "address payable",
          "name": "owner",
          "type": "address"
        },
        {
          "internalType": "uint256",
          "name": "quantity",
          "type": "uint256"
        },
        {
          "components": [
            {
              "internalType": "address",
              "name": "asset",
              "type": "address"
            },
            {
              "internalType": "address",
              "name": "pipeToContract",
              "type": "address"
            },
            {
              "internalType": "uint256",
              "name": "depositAmount",
              "type": "uint256"
            },
            {
              "internalType": "uint256",
              "name": "depositMul",
              "type": "uint256"
            },
            {
              "internalType": "uint256",
              "name": "split",
              "type": "uint256"
            },
            {
              "internalType": "uint256",
              "name": "depositStopTime",
              "type": "uint256"
            },
            {
              "internalType": "bool",
              "name": "maturityExtension",
              "type": "bool"
            },
            {
              "internalType": "bool",
              "name": "isMulti",
              "type": "bool"
            },
            {
              "internalType": "bool",
              "name": "nontransferrable",
              "type": "bool"
            }
          ],
          "internalType": "struct IRevest.FNFTConfig",
          "name": "config",
          "type": "tuple"
        },
        {
          "internalType": "bytes",
          "name": "args",
          "type": "bytes"
        }
      ],
      "name": "receiveSecondaryCallback",
      "outputs": [],
      "stateMutability": "payable",
      "type": "function"
    },
    {
      "inputs": [],
      "name": "renounceOwnership",
      "outputs": [],
      "stateMutability": "nonpayable",
      "type": "function"
    },
    {
      "inputs": [
        {
          "internalType": "address",
          "name": "token",
          "type": "address"
        }
      ],
      "name": "rescueERC20",
      "outputs": [],
      "stateMutability": "nonpayable",
      "type": "function"
    },
    {
      "inputs": [],
      "name": "rescueNativeFunds",
      "outputs": [],
      "stateMutability": "nonpayable",
      "type": "function"
    },
    {
      "inputs": [
        {
          "internalType": "address",
          "name": "addressRegistry_",
          "type": "address"
        }
      ],
      "name": "setAddressRegistry",
      "outputs": [],
      "stateMutability": "nonpayable",
      "type": "function"
    },
    {
      "inputs": [
        {
          "internalType": "string",
          "name": "_meta",
          "type": "string"
        }
      ],
      "name": "setMetadata",
      "outputs": [],
      "stateMutability": "nonpayable",
      "type": "function"
    },
    {
      "inputs": [
        {
          "internalType": "bytes4",
          "name": "interfaceId",
          "type": "bytes4"
        }
      ],
      "name": "supportsInterface",
      "outputs": [
        {
          "internalType": "bool",
          "name": "",
          "type": "bool"
        }
      ],
      "stateMutability": "view",
      "type": "function"
    },
    {
      "inputs": [
        {
          "internalType": "address",
          "name": "newOwner",
          "type": "address"
        }
      ],
      "name": "transferOwnership",
      "outputs": [],
      "stateMutability": "nonpayable",
      "type": "function"
    },
    {
      "inputs": [
        {
          "internalType": "uint256",
          "name": "fnftId",
          "type": "uint256"
        },
        {
          "internalType": "bytes",
          "name": "",
          "type": "bytes"
        }
      ],
      "name": "triggerOutputReceiverUpdate",
      "outputs": [],
      "stateMutability": "nonpayable",
      "type": "function"
    }
  ],
  "bytecode": "0x610120604052605160a0818152906200687060c03980516200002a9160029160209091019062000119565b503480156200003857600080fd5b50604051620068c1380380620068c18339810160408190526200005b91620001cd565b6200006633620000c9565b600180546001600160a01b0319166001600160a01b0383161790556040516000906200009290620001a8565b604051809103906000f080158015620000af573d6000803e3d6000fd5b5060601b6001600160601b031916608052506200023a9050565b600080546001600160a01b038381166001600160a01b0319831681178455604051919092169283917f8be0079c531659141344cd1fd0a4f28419497f9722a3daafe3b4186f6b6457e09190a35050565b8280546200012790620001fd565b90600052602060002090601f0160209004810192826200014b576000855562000196565b82601f106200016657805160ff191683800117855562000196565b8280016001018555821562000196579182015b828111156200019657825182559160200191906001019062000179565b50620001a4929150620001b6565b5090565b6124af80620043c183390190565b5b80821115620001a45760008155600101620001b7565b600060208284031215620001df578081fd5b81516001600160a01b0381168114620001f6578182fd5b9392505050565b600181811c908216806200021257607f821691505b602082108114156200023457634e487b7160e01b600052602260045260246000fd5b50919050565b60805160601c6141376200028a6000396000818161043c0152818161083b01528181610a7901528181610cfe01528181611207015281816117930152818161196e0152611c4801526141376000f3fe6080604052600436106101e35760003560e01c80638bfd917411610102578063c0034e0c11610095578063f2fde38b11610064578063f2fde38b146105de578063f3ad65f4146105fe578063f443faeb146103ef578063f48fe0501461061e57600080fd5b8063c0034e0c14610542578063ccec37161461056a578063d25514121461058a578063eac8f5b8146105aa57600080fd5b80638ecacb1b116100d15780638ecacb1b146104c2578063a49a1e7d146104e2578063aca1c66514610502578063ba156bcb1461052257600080fd5b80638bfd91741461042a5780638c20570b1461045e5780638d9d6705146104865780638da5cb5b146104a457600080fd5b806327c7812c1161017a578063715018a611610149578063715018a6146103b957806376da63f3146103ce57806382bfefc8146103ef57806389158d8e1461041757600080fd5b806327c7812c1461033757806338c3df07146103575780634c2388511461036c578063644bf7d81461039957600080fd5b8063109bbf05116101b6578063109bbf05146102a25780631355f7ab146102ca57806316f49e8a146102ea5780631d1457211461031757600080fd5b806301ffc9a7146101e85780630479d6441461021d578063063c27f81461025d5780630ff4c91614610274575b600080fd5b3480156101f457600080fd5b506102086102033660046135a1565b610633565b60405190151581526020015b60405180910390f35b34801561022957600080fd5b50610245734659d5ff63a1e1edd6d5dd9cc315e063c95947d081565b6040516001600160a01b039091168152602001610214565b34801561026957600080fd5b50610272610764565b005b34801561028057600080fd5b5061029461028f36600461369a565b6107f2565b604051908152602001610214565b3480156102ae57600080fd5b5061024573c07e540dbfeccf7431ea2478eb28a03918c1c30e81565b3480156102d657600080fd5b506102726102e5366004613940565b610909565b3480156102f657600080fd5b5061030a61030536600461369a565b610b57565b6040516102149190613c34565b34801561032357600080fd5b50610272610332366004613978565b610beb565b34801561034357600080fd5b506102726103523660046132f2565b610de5565b34801561036357600080fd5b5061030a610e79565b34801561037857600080fd5b5061029461038736600461369a565b60036020526000908152604090205481565b3480156103a557600080fd5b506102726103b436600461381a565b610f07565b3480156103c557600080fd5b50610272610f4f565b3480156103da57600080fd5b506102726103e9366004613884565b50505050565b3480156103fb57600080fd5b5061024573f43211935c781d5ca1a41d2041f397b8a7366c7a81565b61029461042536600461391f565b610fb5565b34801561043657600080fd5b506102457f000000000000000000000000000000000000000000000000000000000000000081565b34801561046a57600080fd5b5061024573a537d64881b84faffb9ae43c951eebf368b71cda81565b34801561049257600080fd5b506001546001600160a01b0316610245565b3480156104b057600080fd5b506000546001600160a01b0316610245565b3480156104ce57600080fd5b5061030a6104dd36600461369a565b6113dc565b3480156104ee57600080fd5b506102726104fd3660046135e1565b611603565b34801561050e57600080fd5b5061027261051d3660046137d3565b611674565b34801561052e57600080fd5b5061024561053d36600461369a565b611941565b34801561054e57600080fd5b50610245733465b8211278505ae9c6b5ba08ecd9af951a689681565b34801561057657600080fd5b506102726105853660046132f2565b611996565b34801561059657600080fd5b506102726105a53660046138da565b611a99565b3480156105b657600080fd5b506102456105c536600461369a565b5073f43211935c781d5ca1a41d2041f397b8a7366c7a90565b3480156105ea57600080fd5b506102726105f93660046132f2565b611cba565b34801561060a57600080fd5b50600154610245906001600160a01b031681565b61027261062c3660046136b2565b5050505050565b60007fffffffff0000000000000000000000000000000000000000000000000000000082167fd1a3af5a0000000000000000000000000000000000000000000000000000000014806106c657507fffffffff0000000000000000000000000000000000000000000000000000000082167f4291039a00000000000000000000000000000000000000000000000000000000145b8061071257507fffffffff0000000000000000000000000000000000000000000000000000000082167f789bc37900000000000000000000000000000000000000000000000000000000145b8061075e57507f01ffc9a7000000000000000000000000000000000000000000000000000000007fffffffff000000000000000000000000000000000000000000000000000000008316145b92915050565b6000546001600160a01b031633146107c35760405162461bcd60e51b815260206004820181905260248201527f4f776e61626c653a2063616c6c6572206973206e6f7420746865206f776e657260448201526064015b60405180910390fd5b60405133904780156108fc02916000818181858888f193505050501580156107ef573d6000803e3d6000fd5b50565b6040805173f43211935c781d5ca1a41d2041f397b8a7366c7a6020820152908101829052600090734659d5ff63a1e1edd6d5dd9cc315e063c95947d090634b0ee02a9061087a907f0000000000000000000000000000000000000000000000000000000000000000906060015b60405160208183030381529060405280519060200120611d99565b6040517fffffffff0000000000000000000000000000000000000000000000000000000060e084901b1681526001600160a01b03909116600482015260240160206040518083038186803b1580156108d157600080fd5b505afa1580156108e5573d6000803e3d6000fd5b505050506040513d601f19601f8201168201806040525081019061075e9190613589565b600160009054906101000a90046001600160a01b03166001600160a01b031663f97e7d746040518163ffffffff1660e01b815260040160206040518083038186803b15801561095757600080fd5b505afa15801561096b573d6000803e3d6000fd5b505050506040513d601f19601f8201168201806040525081019061098f919061330e565b6001600160a01b0316336001600160a01b0316146109ef5760405162461bcd60e51b815260206004820152601460248201527f556e617574686f72697a6564204163636573732100000000000000000000000060448201526064016107ba565b6303c267006109fe4284613f53565b1115610a4c5760405162461bcd60e51b815260206004820152601560248201527f4d6178206c6f636b75702069732032207965617273000000000000000000000060448201526064016107ba565b6040805173f43211935c781d5ca1a41d2041f397b8a7366c7a6020820152908101849052600090610ab8907f0000000000000000000000000000000000000000000000000000000000000000906060015b60405160208183030381529060405280519060200120611e1c565b600085815260036020526040908190205490517f3c0672bb0000000000000000000000000000000000000000000000000000000081526004810186905260248101919091526001600160a01b0384811660448301529192508291821690633c0672bb90606401600060405180830381600087803b158015610b3857600080fd5b505af1158015610b4c573d6000803e3d6000fd5b505050505050505050565b606060028054610b6690613ff4565b80601f0160208091040260200160405190810160405280929190818152602001828054610b9290613ff4565b8015610bdf5780601f10610bb457610100808354040283529160200191610bdf565b820191906000526020600020905b815481529060010190602001808311610bc257829003601f168201915b50505050509050919050565b600160009054906101000a90046001600160a01b03166001600160a01b031663f97e7d746040518163ffffffff1660e01b815260040160206040518083038186803b158015610c3957600080fd5b505afa158015610c4d573d6000803e3d6000fd5b505050506040513d601f19601f82011682018060405250810190610c71919061330e565b6001600160a01b0316336001600160a01b031614610cd15760405162461bcd60e51b815260206004820152601460248201527f556e617574686f72697a6564204163636573732100000000000000000000000060448201526064016107ba565b6040805173f43211935c781d5ca1a41d2041f397b8a7366c7a6020820152908101859052600090610d26907f000000000000000000000000000000000000000000000000000000000000000090606001610a9d565b905080610d4973f43211935c781d5ca1a41d2041f397b8a7366c7a848388611ed3565b600086815260036020526040908190205490517f5aff427d0000000000000000000000000000000000000000000000000000000081526004810187905260248101919091526001600160a01b038481166044830152821690635aff427d906064015b600060405180830381600087803b158015610dc557600080fd5b505af1158015610dd9573d6000803e3d6000fd5b50505050505050505050565b6000546001600160a01b03163314610e3f5760405162461bcd60e51b815260206004820181905260248201527f4f776e61626c653a2063616c6c6572206973206e6f7420746865206f776e657260448201526064016107ba565b600180547fffffffffffffffffffffffff0000000000000000000000000000000000000000166001600160a01b0392909216919091179055565b60028054610e8690613ff4565b80601f0160208091040260200160405190810160405280929190818152602001828054610eb290613ff4565b8015610eff5780601f10610ed457610100808354040283529160200191610eff565b820191906000526020600020905b815481529060010190602001808311610ee257829003601f168201915b505050505081565b60405162461bcd60e51b815260206004820152600e60248201527f4e6f74206170706c696361626c6500000000000000000000000000000000000060448201526064016107ba565b6000546001600160a01b03163314610fa95760405162461bcd60e51b815260206004820181905260248201527f4f776e61626c653a2063616c6c6572206973206e6f7420746865206f776e657260448201526064016107ba565b610fb36000611f84565b565b60408051610120810182526000808252818301819052606082018190526080820181905260a082018190526101008201819052600160e0830181905260c08301819052306020840152835181815280850190945290928391816020016020820280368337019050509050338160008151811061104157634e487b7160e01b600052603260045260246000fd5b6001600160a01b0392909216602092830291909101909101526040805160018082528183019092526000918160200160208202803683370190505090506001816000815181106110a157634e487b7160e01b600052603260045260246000fd5b6020026020010181815250506000600160009054906101000a90046001600160a01b03166001600160a01b031663f97e7d746040518163ffffffff1660e01b815260040160206040518083038186803b1580156110fd57600080fd5b505afa158015611111573d6000803e3d6000fd5b505050506040513d601f19601f82011682018060405250810190611135919061330e565b6040517f5a7c08f00000000000000000000000000000000000000000000000000000000081529091506001600160a01b03821690635a7c08f090611183908a90879087908a90600401613c47565b602060405180830381600087803b15801561119d57600080fd5b505af11580156111b1573d6000803e3d6000fd5b505050506040513d601f19601f820116820180604052508101906111d59190613589565b6040805173f43211935c781d5ca1a41d2041f397b8a7366c7a60208201529081018290529095506000945061123293507f000000000000000000000000000000000000000000000000000000000000000092506060019050610a9d565b90508061125573f43211935c781d5ca1a41d2041f397b8a7366c7a338387611ed3565b6040517f3c4f8dd800000000000000000000000000000000000000000000000000000000815260048101859052602481018690523360448201526001600160a01b03821690633c4f8dd890606401602060405180830381600087803b1580156112bd57600080fd5b505af11580156112d1573d6000803e3d6000fd5b505050506040513d601f19601f820116820180604052508101906112f59190613589565b6003600085815260200190815260200160002081905550806001600160a01b0316633ff5b85f6040518163ffffffff1660e01b8152600401600060405180830381600087803b15801561134757600080fd5b505af115801561135b573d6000803e3d6000fd5b5050604080516001600160a01b038616602082015286935073f43211935c781d5ca1a41d2041f397b8a7366c7a925033917f5bed1f834b92cc21cec09497afa47d36952b8a037e988eca6e9ecffeb497b2279189910160408051601f19818403018152908290526113cc9291613cdb565b60405180910390a4505092915050565b60606000806113ea84611fec565b915091506000815167ffffffffffffffff81111561141857634e487b7160e01b600052604160045260246000fd5b60405190808252806020026020018201604052801561144b57816020015b60608152602001906001900390816114365790505b508251909150158015906115805760005b845181101561157e57600085828151811061148757634e487b7160e01b600052603260045260246000fd5b60200260200101519050600061149c826127a6565b6040516020016114ac9190613b3d565b604051602081830303815290604052905060006114f08785815181106114e257634e487b7160e01b600052603260045260246000fd5b60200260200101518461285b565b6114f9846128e9565b60405160200161150a929190613abb565b6040516020818303038152906040529050818160405160200161152e929190613a8c565b60405160208183030381529060405286858151811061155d57634e487b7160e01b600052603260045260246000fd5b602002602001018190525050505080806115769061402f565b91505061145c565b505b600061158b87611941565b905060006303c267006115a16201518042613dd8565b6115ae9062015180613f16565b6115b89190613d9b565b90508184848373f43211935c781d5ca1a41d2041f397b8a7366c7a6040516020016115e7959493929190613b7e565b6040516020818303038152906040529650505050505050919050565b6000546001600160a01b0316331461165d5760405162461bcd60e51b815260206004820181905260248201527f4f776e61626c653a2063616c6c6572206973206e6f7420746865206f776e657260448201526064016107ba565b8051611670906002906020840190613122565b5050565b600154604080517f54f2f7af00000000000000000000000000000000000000000000000000000000815290516000926001600160a01b0316916354f2f7af916004808301926020929190829003018186803b1580156116d257600080fd5b505afa1580156116e6573d6000803e3d6000fd5b505050506040513d601f19601f8201168201806040525081019061170a919061330e565b9050336001600160a01b038216146117665760405162461bcd60e51b81526004016107ba9060208082526004908201527f4530313600000000000000000000000000000000000000000000000000000000604082015260600190565b6040805173f43211935c781d5ca1a41d2041f397b8a7366c7a60208201529081018690526000906117bb907f000000000000000000000000000000000000000000000000000000000000000090606001610a9d565b6000878152600360205260408082205490517f1b258d5000000000000000000000000000000000000000000000000000000000815260048101919091526001600160a01b0387811660248301529293508392831690631b258d5090604401602060405180830381600087803b15801561183357600080fd5b505af1158015611847573d6000803e3d6000fd5b505050506040513d601f19601f8201168201806040525081019061186b9190613589565b9050816001600160a01b0316633ff5b85f6040518163ffffffff1660e01b8152600401600060405180830381600087803b1580156118a857600080fd5b505af11580156118bc573d6000803e3d6000fd5b5050604080516001600160a01b0387811660208301528c945073f43211935c781d5ca1a41d2041f397b8a7366c7a93508a16917ff2b6e7f64080f438239b56473f2cd92b33165c88688fd898e1d99082bd0eb9549186910160408051601f198184030181529082905261192f9291613cdb565b60405180910390a45050505050505050565b6040805173f43211935c781d5ca1a41d2041f397b8a7366c7a602082015290810182905260009061075e907f00000000000000000000000000000000000000000000000000000000000000009060600161085f565b6000546001600160a01b031633146119f05760405162461bcd60e51b815260206004820181905260248201527f4f776e61626c653a2063616c6c6572206973206e6f7420746865206f776e657260448201526064016107ba565b6040517f70a082310000000000000000000000000000000000000000000000000000000081523060048201526000906001600160a01b038316906370a082319060240160206040518083038186803b158015611a4b57600080fd5b505afa158015611a5f573d6000803e3d6000fd5b505050506040513d601f19601f82011682018060405250810190611a839190613589565b90506116706001600160a01b0383163383612996565b600154604080517fd59e296e000000000000000000000000000000000000000000000000000000008152905184926001600160a01b031691600091839163d59e296e916004808301926020929190829003018186803b158015611afb57600080fd5b505afa158015611b0f573d6000803e3d6000fd5b505050506040513d601f19601f82011682018060405250810190611b33919061330e565b6040517f2b04e840000000000000000000000000000000000000000000000000000000008152336004820152602481018590526001600160a01b039190911690632b04e8409060440160206040518083038186803b158015611b9457600080fd5b505afa158015611ba8573d6000803e3d6000fd5b505050506040513d601f19601f82011682018060405250810190611bcc9190613589565b11611c1b5760405162461bcd60e51b81526004016107ba9060208082526004908201527f4530363400000000000000000000000000000000000000000000000000000000604082015260600190565b6040805173f43211935c781d5ca1a41d2041f397b8a7366c7a6020820152908101859052600090611c70907f000000000000000000000000000000000000000000000000000000000000000090606001610a9d565b6040517fef5cfb8c00000000000000000000000000000000000000000000000000000000815233600482015290915081906001600160a01b0382169063ef5cfb8c90602401610dab565b6000546001600160a01b03163314611d145760405162461bcd60e51b815260206004820181905260248201527f4f776e61626c653a2063616c6c6572206973206e6f7420746865206f776e657260448201526064016107ba565b6001600160a01b038116611d905760405162461bcd60e51b815260206004820152602660248201527f4f776e61626c653a206e6577206f776e657220697320746865207a65726f206160448201527f646472657373000000000000000000000000000000000000000000000000000060648201526084016107ba565b6107ef81611f84565b6000611e158383306040517f3d602d80600a3d3981f3363d3d373d3d3d363d730000000000000000000000008152606093841b60148201527f5af43d82803e903d91602b57fd5bf3ff000000000000000000000000000000006028820152921b6038830152604c8201526037808220606c830152605591012090565b9392505050565b60006040517f3d602d80600a3d3981f3363d3d373d3d3d363d7300000000000000000000000081528360601b60148201527f5af43d82803e903d91602b57fd5bf300000000000000000000000000000000006028820152826037826000f59150506001600160a01b03811661075e5760405162461bcd60e51b815260206004820152601760248201527f455243313136373a2063726561746532206661696c656400000000000000000060448201526064016107ba565b6040516001600160a01b03808516602483015283166044820152606481018290526103e99085907f23b872dd00000000000000000000000000000000000000000000000000000000906084015b60408051601f198184030181529190526020810180517bffffffffffffffffffffffffffffffffffffffffffffffffffffffff167fffffffff00000000000000000000000000000000000000000000000000000000909316929092179091526129e4565b600080546001600160a01b038381167fffffffffffffffffffffffff0000000000000000000000000000000000000000831681178455604051919092169283917f8be0079c531659141344cd1fd0a4f28419497f9722a3daafe3b4186f6b6457e09190a35050565b6060806000611ffa84611941565b9050600073a537d64881b84faffb9ae43c951eebf368b71cda6001600160a01b03166312edb24c6040518163ffffffff1660e01b815260040160006040518083038186803b15801561204b57600080fd5b505afa15801561205f573d6000803e3d6000fd5b505050506040513d6000823e601f3d908101601f19168201604052612087919081019061332a565b6040517e8cc2620000000000000000000000000000000000000000000000000000000081526001600160a01b038416600482015290915060009073a537d64881b84faffb9ae43c951eebf368b71cda90628cc2629060240160006040518083038186803b1580156120f757600080fd5b505afa15801561210b573d6000803e3d6000fd5b505050506040513d6000823e601f3d908101601f1916820160405261213391908101906134e6565b6040517fb277e8f00000000000000000000000000000000000000000000000000000000081526001600160a01b0385166004820152909150600090734659d5ff63a1e1edd6d5dd9cc315e063c95947d09063b277e8f09060240160006040518083038186803b1580156121a557600080fd5b505afa1580156121b9573d6000803e3d6000fd5b505050506040513d6000823e601f3d908101601f191682016040526121e191908101906133c6565b90506000733465b8211278505ae9c6b5ba08ecd9af951a68966001600160a01b031663857cb94a6040518163ffffffff1660e01b815260040160206040518083038186803b15801561223257600080fd5b505afa158015612246573d6000803e3d6000fd5b505050506040513d601f19601f8201168201806040525081019061226a9190613589565b9050815181855161227b9190613d9b565b6122859190613d9b565b67ffffffffffffffff8111156122ab57634e487b7160e01b600052604160045260246000fd5b6040519080825280602002602001820160405280156122d4578160200160208202803683370190505b50965081518185516122e69190613d9b565b6122f09190613d9b565b67ffffffffffffffff81111561231657634e487b7160e01b600052604160045260246000fd5b60405190808252806020026020018201604052801561233f578160200160208202803683370190505b50955060005b84518110156124e35784818151811061236e57634e487b7160e01b600052603260045260246000fd5b602002602001015188828151811061239657634e487b7160e01b600052603260045260246000fd5b60200260200101906001600160a01b031690816001600160a01b0316815250508481815181106123d657634e487b7160e01b600052603260045260246000fd5b60209081029190910101516040517f70a082310000000000000000000000000000000000000000000000000000000081526001600160a01b038881166004830152909116906370a082319060240160206040518083038186803b15801561243c57600080fd5b505afa158015612450573d6000803e3d6000fd5b505050506040513d601f19601f820116820180604052508101906124749190613589565b84828151811061249457634e487b7160e01b600052603260045260246000fd5b60200260200101516124a69190613d9b565b8782815181106124c657634e487b7160e01b600052603260045260246000fd5b6020908102919091010152806124db8161402f565b915050612345565b506040517fdc01f60d0000000000000000000000000000000000000000000000000000000081526001600160a01b0386166004820152600090733465b8211278505ae9c6b5ba08ecd9af951a68969063dc01f60d9060240160006040518083038186803b15801561255357600080fd5b505afa158015612567573d6000803e3d6000fd5b505050506040513d6000823e601f3d908101601f1916820160405261258f9190810190613456565b905060005b815181101561268a578181815181106125bd57634e487b7160e01b600052603260045260246000fd5b602002602001015160000151898751836125d79190613d9b565b815181106125f557634e487b7160e01b600052603260045260246000fd5b60200260200101906001600160a01b031690816001600160a01b03168152505081818151811061263557634e487b7160e01b600052603260045260246000fd5b6020026020010151602001518887518361264f9190613d9b565b8151811061266d57634e487b7160e01b600052603260045260246000fd5b6020908102919091010152806126828161402f565b915050612594565b5060005b835181101561279a578381815181106126b757634e487b7160e01b600052603260045260246000fd5b60200260200101516000015189848851846126d29190613d9b565b6126dc9190613d9b565b815181106126fa57634e487b7160e01b600052603260045260246000fd5b60200260200101906001600160a01b031690816001600160a01b03168152505083818151811061273a57634e487b7160e01b600052603260045260246000fd5b60200260200101516020015188848851846127559190613d9b565b61275f9190613d9b565b8151811061277d57634e487b7160e01b600052603260045260246000fd5b6020908102919091010152806127928161402f565b91505061268e565b50505050505050915091565b6060816001600160a01b03166306fdde036040518163ffffffff1660e01b815260040160006040518083038186803b1580156127e157600080fd5b505afa92505050801561281657506040513d6000823e601f3d908101601f191682016040526128139190810190613627565b60015b61285357505060408051808201909152600d81527f556e6b6e6f776e20546f6b656e00000000000000000000000000000000000000602082015290565b90505b919050565b60606000826001600160a01b031663313ce5676040518163ffffffff1660e01b815260040160206040518083038186803b15801561289857600080fd5b505afa9250505080156128c8575060408051601f3d908101601f191682019092526128c5918101906139ad565b60015b6128d4575060126128d7565b90505b6128e18482612ac9565b949350505050565b6060816001600160a01b03166395d89b416040518163ffffffff1660e01b815260040160006040518083038186803b15801561292457600080fd5b505afa92505050801561295957506040513d6000823e601f3d908101601f191682016040526129569190810190613627565b60015b61285357505060408051808201909152600381527f3f3f3f0000000000000000000000000000000000000000000000000000000000602082015290565b6040516001600160a01b0383166024820152604481018290526129df9084907fa9059cbb0000000000000000000000000000000000000000000000000000000090606401611f20565b505050565b6000612a39826040518060400160405280602081526020017f5361666545524332303a206c6f772d6c6576656c2063616c6c206661696c6564815250856001600160a01b0316612c7e9092919063ffffffff16565b8051909150156129df5780806020019051810190612a57919061356d565b6129df5760405162461bcd60e51b815260206004820152602a60248201527f5361666545524332303a204552433230206f7065726174696f6e20646964206e60448201527f6f7420737563636565640000000000000000000000000000000000000000000060648201526084016107ba565b60606000612ad883600a613e4d565b9050836000805b8215612b3e5760ff811615612b005780612af881614068565b915050612b1e565b612b0b600a84614088565b15612b1e5780612b1a81614068565b9150505b81612b2881614068565b9250612b379050600a84613dd8565b9250612adf565b6040805160e081018252600080825260208201819052918101829052606081018290526080810182905260a0810182905260c081019190915260ff8716612b858385613f6a565b60ff1610612bb757612b978589613dd8565b8152612ba38784613f6a565b60ff16604082018190526020820152612c5c565b612bc18284613f6a565b612bcc90600a613e4d565b612bd69089613dd8565b815287851115612c2b5760026080820152612bf18388613f6a565b612bfc906002613db3565b60ff1660a08201819052612c109083613db3565b60ff16604082018190526020820152600160c0820152612c5c565b612c36826001613db3565b60ff166040820152612c488784613f6a565b612c53906001613db3565b60ff1660608201525b604081015160ff166020820152612c7281612c8d565b98975050505050505050565b60606128e18484600085612faa565b60606000826020015160ff1667ffffffffffffffff811115612cbf57634e487b7160e01b600052604160045260246000fd5b6040519080825280601f01601f191660200182016040528015612ce9576020820181803683370190505b5090508260c0015115612dd9577f300000000000000000000000000000000000000000000000000000000000000081600081518110612d3857634e487b7160e01b600052603260045260246000fd5b60200101907effffffffffffffffffffffffffffffffffffffffffffffffffffffffffffff1916908160001a9053507f2e0000000000000000000000000000000000000000000000000000000000000081600181518110612da957634e487b7160e01b600052603260045260246000fd5b60200101907effffffffffffffffffffffffffffffffffffffffffffffffffffffffffffff1916908160001a9053505b608083015160ff165b8360a0015160ff16811015612e5757603060f81b828281518110612e1657634e487b7160e01b600052603260045260246000fd5b60200101907effffffffffffffffffffffffffffffffffffffffffffffffffffffffffffff1916908160001a90535080612e4f8161402f565b915050612de2565b505b825115612853576000836060015160ff16118015612e845750826060015160ff16836040015160ff16145b15612f0f577f2e0000000000000000000000000000000000000000000000000000000000000081846040018051612eba90613fb9565b60ff169081905281518110612edf57634e487b7160e01b600052603260045260246000fd5b60200101907effffffffffffffffffffffffffffffffffffffffffffffffffffffffffffff1916908160001a9053505b8251612f1d90600a90614088565b612f28906030613d9b565b60f81b81846040018051612f3b90613fb9565b60ff169081905281518110612f6057634e487b7160e01b600052603260045260246000fd5b60200101907effffffffffffffffffffffffffffffffffffffffffffffffffffffffffffff1916908160001a905350600a83600001818151612fa29190613dd8565b905250612e59565b6060824710156130225760405162461bcd60e51b815260206004820152602660248201527f416464726573733a20696e73756666696369656e742062616c616e636520666f60448201527f722063616c6c000000000000000000000000000000000000000000000000000060648201526084016107ba565b843b6130705760405162461bcd60e51b815260206004820152601d60248201527f416464726573733a2063616c6c20746f206e6f6e2d636f6e747261637400000060448201526064016107ba565b600080866001600160a01b0316858760405161308c9190613a70565b60006040518083038185875af1925050503d80600081146130c9576040519150601f19603f3d011682016040523d82523d6000602084013e6130ce565b606091505b50915091506130de8282866130e9565b979650505050505050565b606083156130f8575081611e15565b8251156131085782518084602001fd5b8160405162461bcd60e51b81526004016107ba9190613c34565b82805461312e90613ff4565b90600052602060002090601f0160209004810192826131505760008555613196565b82601f1061316957805160ff1916838001178555613196565b82800160010185558215613196579182015b8281111561319657825182559160200191906001019061317b565b506131a29291506131a6565b5090565b5b808211156131a257600081556001016131a7565b60006131ce6131c984613d73565b613d1e565b90508281528383830111156131e257600080fd5b828260208301376000602084830101529392505050565b8035612856816140de565b600082601f830112613214578081fd5b813560206132246131c983613d4f565b80838252828201915082860187848660051b8901011115613243578586fd5b855b8581101561326157813584529284019290840190600101613245565b5090979650505050505050565b8035612856816140f3565b600082601f830112613289578081fd5b611e15838335602085016131bb565b6000604082840312156132a9578081fd5b6040516040810181811067ffffffffffffffff821117156132cc576132cc6140c8565b806040525080915082516132df816140de565b8152602092830151920191909152919050565b600060208284031215613303578081fd5b8135611e15816140de565b60006020828403121561331f578081fd5b8151611e15816140de565b6000602080838503121561333c578182fd5b825167ffffffffffffffff811115613352578283fd5b8301601f81018513613362578283fd5b80516133706131c982613d4f565b80828252848201915084840188868560051b870101111561338f578687fd5b8694505b838510156133ba5780516133a6816140de565b835260019490940193918501918501613393565b50979650505050505050565b600060208083850312156133d8578182fd5b825167ffffffffffffffff8111156133ee578283fd5b8301601f810185136133fe578283fd5b805161340c6131c982613d4f565b80828252848201915084840188868560061b870101111561342b578687fd5b8694505b838510156133ba576134418982613298565b8352600194909401939185019160400161342f565b60006020808385031215613468578182fd5b825167ffffffffffffffff81111561347e578283fd5b8301601f8101851361348e578283fd5b805161349c6131c982613d4f565b80828252848201915084840188868560061b87010111156134bb578687fd5b8694505b838510156133ba576134d18982613298565b835260019490940193918501916040016134bf565b600060208083850312156134f8578182fd5b825167ffffffffffffffff81111561350e578283fd5b8301601f8101851361351e578283fd5b805161352c6131c982613d4f565b80828252848201915084840188868560051b870101111561354b578687fd5b8694505b838510156133ba57805183526001949094019391850191850161354f565b60006020828403121561357e578081fd5b8151611e15816140f3565b60006020828403121561359a578081fd5b5051919050565b6000602082840312156135b2578081fd5b81357fffffffff0000000000000000000000000000000000000000000000000000000081168114611e15578182fd5b6000602082840312156135f2578081fd5b813567ffffffffffffffff811115613608578182fd5b8201601f81018413613618578182fd5b6128e1848235602084016131bb565b600060208284031215613638578081fd5b815167ffffffffffffffff81111561364e578182fd5b8201601f8101841361365e578182fd5b805161366c6131c982613d73565b818152856020838501011115613680578384fd5b613691826020830160208601613f8d565b95945050505050565b6000602082840312156136ab578081fd5b5035919050565b60008060008060008587036101a08112156136cb578182fd5b8635955060208701356136dd816140de565b9450604087013593506101207fffffffffffffffffffffffffffffffffffffffffffffffffffffffffffffffa08201811315613717578283fd5b61371f613cf4565b915061372d606089016131f9565b825261373b608089016131f9565b602083015260a0880135604083015260c0880135606083015260e088013560808301526101008089013560a0840152613775828a0161326e565b60c08401526137876101408a0161326e565b60e08401526137996101608a0161326e565b9083015250915061018086013567ffffffffffffffff8111156137ba578182fd5b6137c688828901613279565b9150509295509295909350565b600080600080608085870312156137e8578182fd5b8435935060208501356137fa816140de565b9250604085013561380a816140de565b9396929550929360600135925050565b6000806000806080858703121561382f578182fd5b84359350602085013567ffffffffffffffff81111561384c578283fd5b61385887828801613204565b9350506040850135613869816140de565b91506060850135613879816140f3565b939692955090935050565b60008060008060808587031215613899578182fd5b84359350602085013567ffffffffffffffff8111156138b6578283fd5b6138c287828801613204565b935050604085013591506060850135613879816140de565b600080604083850312156138ec578182fd5b82359150602083013567ffffffffffffffff811115613909578182fd5b61391585828601613279565b9150509250929050565b60008060408385031215613931578182fd5b50508035926020909101359150565b600080600060608486031215613954578081fd5b8335925060208401359150604084013561396d816140de565b809150509250925092565b6000806000806080858703121561398d578182fd5b8435935060208501359250604085013591506060850135613879816140de565b6000602082840312156139be578081fd5b815160ff81168114611e15578182fd5b600081518084526139e6816020860160208601613f8d565b601f01601f19169290920160200192915050565b6001600160a01b038082511683528060208301511660208401525060408101516040830152606081015160608301526080810151608083015260a081015160a083015260c0810151151560c083015260e0810151613a5c60e084018215159052565b5061010081810151801515848301526103e9565b60008251613a82818460208701613f8d565b9190910192915050565b60008351613a9e818460208801613f8d565b835190830190613ab2818360208801613f8d565b01949350505050565b60008351613acd818460208801613f8d565b7f205b0000000000000000000000000000000000000000000000000000000000009083019081528351613b07816002840160208801613f8d565b7f5d20546f6b656e7320417661696c61626c65000000000000000000000000000060029290910191820152601401949350505050565b60008251613b4f818460208701613f8d565b7f3a20000000000000000000000000000000000000000000000000000000000000920191825250600201919050565b600060a082016001600160a01b0388168352602060a08185015281885180845260c08601915060c08160051b8701019350828a01855b82811015613c00577fffffffffffffffffffffffffffffffffffffffffffffffffffffffffffffff40888703018452613bee8683516139ce565b95509284019290840190600101613bb4565b505050508615156040850152509050836060830152613c2a60808301846001600160a01b03169052565b9695505050505050565b602081526000611e1560208301846139ce565b848152610180602080830182905285519183018290526000916101a084019187810191845b81811015613c915783516001600160a01b031685529382019392820192600101613c6c565b5050848303604086015286518084528188019382019250845b81811015613cc657845184529382019392820192600101613caa565b505050809250505061369160608301846139fa565b8281526040602082015260006128e160408301846139ce565b604051610120810167ffffffffffffffff81118282101715613d1857613d186140c8565b60405290565b604051601f8201601f1916810167ffffffffffffffff81118282101715613d4757613d476140c8565b604052919050565b600067ffffffffffffffff821115613d6957613d696140c8565b5060051b60200190565b600067ffffffffffffffff821115613d8d57613d8d6140c8565b50601f01601f191660200190565b60008219821115613dae57613dae61409c565b500190565b600060ff821660ff84168060ff03821115613dd057613dd061409c565b019392505050565b600082613de757613de76140b2565b500490565b600181815b80851115613e4557817fffffffffffffffffffffffffffffffffffffffffffffffffffffffffffffffff04821115613e2b57613e2b61409c565b80851615613e3857918102915b93841c9390800290613df1565b509250929050565b6000611e1560ff841683600082613e665750600161075e565b81613e735750600061075e565b8160018114613e895760028114613e9357613eaf565b600191505061075e565b60ff841115613ea457613ea461409c565b50506001821b61075e565b5060208310610133831016604e8410600b8410161715613ed2575081810a61075e565b613edc8383613dec565b807fffffffffffffffffffffffffffffffffffffffffffffffffffffffffffffffff04821115613f0e57613f0e61409c565b029392505050565b6000817fffffffffffffffffffffffffffffffffffffffffffffffffffffffffffffffff0483118215151615613f4e57613f4e61409c565b500290565b600082821015613f6557613f6561409c565b500390565b600060ff821660ff841680821015613f8457613f8461409c565b90039392505050565b60005b83811015613fa8578181015183820152602001613f90565b838111156103e95750506000910152565b600060ff821680613fcc57613fcc61409c565b7fffffffffffffffffffffffffffffffffffffffffffffffffffffffffffffffff0192915050565b600181811c9082168061400857607f821691505b6020821081141561402957634e487b7160e01b600052602260045260246000fd5b50919050565b60007fffffffffffffffffffffffffffffffffffffffffffffffffffffffffffffffff8214156140615761406161409c565b5060010190565b600060ff821660ff81141561407f5761407f61409c565b60010192915050565b600082614097576140976140b2565b500690565b634e487b7160e01b600052601160045260246000fd5b634e487b7160e01b600052601260045260246000fd5b634e487b7160e01b600052604160045260246000fd5b6001600160a01b03811681146107ef57600080fd5b80151581146107ef57600080fdfea264697066735822122045b1a2fc1f4219c828ab62ce21ba4a36135e26422bc9d88c60d646cbb466b84c64736f6c6343000804003360a060405234801561001057600080fd5b5033606081901b60805261245361005c6000396000818161028201528181610589015281816106c601528181610d1c01528181610dc501528181610f4f015261132d01526124536000f3fe608060405234801561001057600080fd5b50600436106100ea5760003560e01c80635aff427d1161008c578063945c914211610066578063945c914214610204578063c0034e0c1461021f578063ef5cfb8c1461023a578063f443faeb1461024d57600080fd5b80635aff427d146101bb578063759cb53b146101ce5780638c20570b146101e957600080fd5b8063200ea222116100c8578063200ea222146101705780633c0672bb1461018b5780633c4f8dd8146101a05780633ff5b85f146101b357600080fd5b80630479d644146100ef578063109bbf05146101345780631b258d501461014f575b600080fd5b61010a734659d5ff63a1e1edd6d5dd9cc315e063c95947d081565b60405173ffffffffffffffffffffffffffffffffffffffff90911681526020015b60405180910390f35b61010a73c07e540dbfeccf7431ea2478eb28a03918c1c30e81565b61016261015d3660046121e0565b610268565b60405190815260200161012b565b61010a733432b6a60d23ca0dfca7761b7ab56459d9c964d081565b61019e61019936600461220f565b610571565b005b6101626101ae366004612247565b6106ac565b61019e610d04565b61019e6101c936600461220f565b610dad565b61010a734e3fbd56cd56c3e72c1403e103b45db9da5b9d2b81565b61010a73a537d64881b84faffb9ae43c951eebf368b71cda81565b61010a73d533a949740bb3306d119cc777fa900ba034cd5281565b61010a733465b8211278505ae9c6b5ba08ecd9af951a689681565b61019e610248366004612064565b610f37565b61010a73f43211935c781d5ca1a41d2041f397b8a7366c7a81565b60003373ffffffffffffffffffffffffffffffffffffffff7f0000000000000000000000000000000000000000000000000000000000000000161461030e576040517f08c379a000000000000000000000000000000000000000000000000000000000815260206004820152600d60248201527f556e617574686f72697a6564210000000000000000000000000000000000000060448201526064015b60405180910390fd5b6040517fe44b9fa50000000000000000000000000000000000000000000000000000000081526004810184905230602482015273a537d64881b84faffb9ae43c951eebf368b71cda9063e44b9fa590604401602060405180830381600087803b15801561037a57600080fd5b505af115801561038e573d6000803e3d6000fd5b505050506040513d601f19601f820116820180604052508101906103b291906121c8565b506040517f70a08231000000000000000000000000000000000000000000000000000000008152306004820152734659d5ff63a1e1edd6d5dd9cc315e063c95947d090633969dfb49082906370a082319060240160206040518083038186803b15801561041e57600080fd5b505afa158015610432573d6000803e3d6000fd5b505050506040513d601f19601f8201168201806040525081019061045691906121c8565b6040518263ffffffff1660e01b815260040161047491815260200190565b600060405180830381600087803b15801561048e57600080fd5b505af11580156104a2573d6000803e3d6000fd5b50506040517f70a0823100000000000000000000000000000000000000000000000000000000815230600482015273f43211935c781d5ca1a41d2041f397b8a7366c7a92506370a08231915060240160206040518083038186803b15801561050957600080fd5b505afa15801561051d573d6000803e3d6000fd5b505050506040513d601f19601f8201168201806040525081019061054191906121c8565b905061056273f43211935c781d5ca1a41d2041f397b8a7366c7a8383610fec565b61056b82611079565b92915050565b3373ffffffffffffffffffffffffffffffffffffffff7f00000000000000000000000000000000000000000000000000000000000000001614610610576040517f08c379a000000000000000000000000000000000000000000000000000000000815260206004820152600d60248201527f556e617574686f72697a656421000000000000000000000000000000000000006044820152606401610305565b6040517fd2fbdc0d000000000000000000000000000000000000000000000000000000008152600481018390526024810184905273a537d64881b84faffb9ae43c951eebf368b71cda9063d2fbdc0d906044015b600060405180830381600087803b15801561067e57600080fd5b505af1158015610692573d6000803e3d6000fd5b5050505061069f81611079565b6106a761132b565b505050565b60003373ffffffffffffffffffffffffffffffffffffffff7f0000000000000000000000000000000000000000000000000000000000000000161461074d576040517f08c379a000000000000000000000000000000000000000000000000000000000815260206004820152600d60248201527f556e617574686f72697a656421000000000000000000000000000000000000006044820152606401610305565b6040517fdd62ed3e00000000000000000000000000000000000000000000000000000000815230600482015273a537d64881b84faffb9ae43c951eebf368b71cda602482015260001990734659d5ff63a1e1edd6d5dd9cc315e063c95947d09063dd62ed3e9060440160206040518083038186803b1580156107ce57600080fd5b505afa1580156107e2573d6000803e3d6000fd5b505050506040513d601f19601f8201168201806040525081019061080691906121c8565b146108c6576040517f095ea7b300000000000000000000000000000000000000000000000000000000815273a537d64881b84faffb9ae43c951eebf368b71cda60048201526000196024820152734659d5ff63a1e1edd6d5dd9cc315e063c95947d09063095ea7b390604401602060405180830381600087803b15801561088c57600080fd5b505af11580156108a0573d6000803e3d6000fd5b505050506040513d601f19601f820116820180604052508101906108c491906121a8565b505b6040517fdd62ed3e000000000000000000000000000000000000000000000000000000008152306004820152734659d5ff63a1e1edd6d5dd9cc315e063c95947d060248201526000199073f43211935c781d5ca1a41d2041f397b8a7366c7a9063dd62ed3e9060440160206040518083038186803b15801561094757600080fd5b505afa15801561095b573d6000803e3d6000fd5b505050506040513d601f19601f8201168201806040525081019061097f91906121c8565b14610a3f576040517f095ea7b3000000000000000000000000000000000000000000000000000000008152734659d5ff63a1e1edd6d5dd9cc315e063c95947d06004820152600019602482015273f43211935c781d5ca1a41d2041f397b8a7366c7a9063095ea7b390604401602060405180830381600087803b158015610a0557600080fd5b505af1158015610a19573d6000803e3d6000fd5b505050506040513d601f19601f82011682018060405250810190610a3d91906121a8565b505b6040517fdd62ed3e000000000000000000000000000000000000000000000000000000008152306004820152734659d5ff63a1e1edd6d5dd9cc315e063c95947d060248201526000199073c07e540dbfeccf7431ea2478eb28a03918c1c30e9063dd62ed3e9060440160206040518083038186803b158015610ac057600080fd5b505afa158015610ad4573d6000803e3d6000fd5b505050506040513d601f19601f82011682018060405250810190610af891906121c8565b14610bb8576040517f095ea7b3000000000000000000000000000000000000000000000000000000008152734659d5ff63a1e1edd6d5dd9cc315e063c95947d06004820152600019602482015273c07e540dbfeccf7431ea2478eb28a03918c1c30e9063095ea7b390604401602060405180830381600087803b158015610b7e57600080fd5b505af1158015610b92573d6000803e3d6000fd5b505050506040513d601f19601f82011682018060405250810190610bb691906121a8565b505b6040517f6e553f6500000000000000000000000000000000000000000000000000000000815260048101859052306024820152734659d5ff63a1e1edd6d5dd9cc315e063c95947d090636e553f6590604401600060405180830381600087803b158015610c2457600080fd5b505af1158015610c38573d6000803e3d6000fd5b5073a537d64881b84faffb9ae43c951eebf368b71cda92506317b18c899150869050610c64428761233b565b6040517fffffffff0000000000000000000000000000000000000000000000000000000060e085901b16815260048101929092526024820152604401602060405180830381600087803b158015610cba57600080fd5b505af1158015610cce573d6000803e3d6000fd5b505050506040513d601f19601f82011682018060405250810190610cf291906121c8565b9050610cfd82611079565b9392505050565b3373ffffffffffffffffffffffffffffffffffffffff7f00000000000000000000000000000000000000000000000000000000000000001614610da3576040517f08c379a000000000000000000000000000000000000000000000000000000000815260206004820152600d60248201527f556e617574686f72697a656421000000000000000000000000000000000000006044820152606401610305565b610dab61132b565b565b3373ffffffffffffffffffffffffffffffffffffffff7f00000000000000000000000000000000000000000000000000000000000000001614610e4c576040517f08c379a000000000000000000000000000000000000000000000000000000000815260206004820152600d60248201527f556e617574686f72697a656421000000000000000000000000000000000000006044820152606401610305565b8215610f2e576040517f6e553f6500000000000000000000000000000000000000000000000000000000815260048101849052306024820152734659d5ff63a1e1edd6d5dd9cc315e063c95947d090636e553f6590604401600060405180830381600087803b158015610ebe57600080fd5b505af1158015610ed2573d6000803e3d6000fd5b50506040517fb85efd06000000000000000000000000000000000000000000000000000000008152600481018590526024810186905273a537d64881b84faffb9ae43c951eebf368b71cda925063b85efd069150604401610664565b61069f81611079565b3373ffffffffffffffffffffffffffffffffffffffff7f00000000000000000000000000000000000000000000000000000000000000001614610fd6576040517f08c379a000000000000000000000000000000000000000000000000000000000815260206004820152600d60248201527f556e617574686f72697a656421000000000000000000000000000000000000006044820152606401610305565b610fe1600182611364565b610fe961132b565b50565b6040805173ffffffffffffffffffffffffffffffffffffffff8416602482015260448082018490528251808303909101815260649091019091526020810180517bffffffffffffffffffffffffffffffffffffffffffffffffffffffff167fa9059cbb000000000000000000000000000000000000000000000000000000001790526106a7908490611720565b733465b8211278505ae9c6b5ba08ecd9af951a689673ffffffffffffffffffffffffffffffffffffffff166302fb0c5e6040518163ffffffff1660e01b815260040160206040518083038186803b1580156110d357600080fd5b505afa1580156110e7573d6000803e3d6000fd5b505050506040513d601f19601f8201168201806040525081019061110b91906121a8565b15610fe9576040517fd9f96e8d00000000000000000000000000000000000000000000000000000000815230600482015260009073a537d64881b84faffb9ae43c951eebf368b71cda9063d9f96e8d9060240160206040518083038186803b15801561117657600080fd5b505afa15801561118a573d6000803e3d6000fd5b505050506040513d601f19601f820116820180604052508101906111ae91906121c8565b6040517f70a08231000000000000000000000000000000000000000000000000000000008152306004820152909150600090733465b8211278505ae9c6b5ba08ecd9af951a6896906370a082319060240160206040518083038186803b15801561121757600080fd5b505afa15801561122b573d6000803e3d6000fd5b505050506040513d601f19601f8201168201806040525081019061124f91906121c8565b905080821061130657733465b8211278505ae9c6b5ba08ecd9af951a68966347e7ef248461127d848661233b565b6040517fffffffff0000000000000000000000000000000000000000000000000000000060e085901b16815273ffffffffffffffffffffffffffffffffffffffff909216600483015260248201526044015b600060405180830381600087803b1580156112e957600080fd5b505af11580156112fd573d6000803e3d6000fd5b50505050505050565b733465b8211278505ae9c6b5ba08ecd9af951a689663f3fef3a38461127d858561233b565b7f000000000000000000000000000000000000000000000000000000000000000073ffffffffffffffffffffffffffffffffffffffff16ff5b811561164c576040517fc00007b000000000000000000000000000000000000000000000000000000000815230600482015273a537d64881b84faffb9ae43c951eebf368b71cda9063c00007b090602401600060405180830381600087803b1580156113cf57600080fd5b505af11580156113e3573d6000803e3d6000fd5b505050506040513d6000823e601f3d9081017fffffffffffffffffffffffffffffffffffffffffffffffffffffffffffffffe01682016040526114299190810190612121565b506040517f6b09169500000000000000000000000000000000000000000000000000000000815230600482015273ffffffffffffffffffffffffffffffffffffffff82166024820152734659d5ff63a1e1edd6d5dd9cc315e063c95947d090636b09169590604401600060405180830381600087803b1580156114ab57600080fd5b505af11580156114bf573d6000803e3d6000fd5b50506040517f70a082310000000000000000000000000000000000000000000000000000000081523060048201526000925073d533a949740bb3306d119cc777fa900ba034cd5291506370a082319060240160206040518083038186803b15801561152957600080fd5b505afa15801561153d573d6000803e3d6000fd5b505050506040513d601f19601f8201168201806040525081019061156191906121c8565b905080156115885761158873d533a949740bb3306d119cc777fa900ba034cd528383610fec565b6040517f70a08231000000000000000000000000000000000000000000000000000000008152306004820152734e3fbd56cd56c3e72c1403e103b45db9da5b9d2b906370a082319060240160206040518083038186803b1580156115eb57600080fd5b505afa1580156115ff573d6000803e3d6000fd5b505050506040513d601f19601f8201168201806040525081019061162391906121c8565b9050801561164a5761164a734e3fbd56cd56c3e72c1403e103b45db9da5b9d2b8383610fec565b505b6116558161182c565b600073a537d64881b84faffb9ae43c951eebf368b71cda73ffffffffffffffffffffffffffffffffffffffff166312edb24c6040518163ffffffff1660e01b815260040160006040518083038186803b1580156116b157600080fd5b505afa1580156116c5573d6000803e3d6000fd5b505050506040513d6000823e601f3d9081017fffffffffffffffffffffffffffffffffffffffffffffffffffffffffffffffe016820160405261170b9190810190612080565b90506117178183611990565b6106a782611b8e565b6000611782826040518060400160405280602081526020017f5361666545524332303a206c6f772d6c6576656c2063616c6c206661696c65648152508573ffffffffffffffffffffffffffffffffffffffff16611e7a9092919063ffffffff16565b8051909150156106a757808060200190518101906117a091906121a8565b6106a7576040517f08c379a000000000000000000000000000000000000000000000000000000000815260206004820152602a60248201527f5361666545524332303a204552433230206f7065726174696f6e20646964206e60448201527f6f742073756363656564000000000000000000000000000000000000000000006064820152608401610305565b6040517f70a08231000000000000000000000000000000000000000000000000000000008152306004820152600090733432b6a60d23ca0dfca7761b7ab56459d9c964d0906370a082319060240160206040518083038186803b15801561189257600080fd5b505afa1580156118a6573d6000803e3d6000fd5b505050506040513d601f19601f820116820180604052508101906118ca91906121c8565b9050801561198c576040517fa9059cbb00000000000000000000000000000000000000000000000000000000815273ffffffffffffffffffffffffffffffffffffffff8316600482015260248101829052733432b6a60d23ca0dfca7761b7ab56459d9c964d09063a9059cbb90604401602060405180830381600087803b15801561195457600080fd5b505af1158015611968573d6000803e3d6000fd5b505050506040513d601f19601f820116820180604052508101906106a791906121a8565b5050565b60005b82518110156106a757733432b6a60d23ca0dfca7761b7ab56459d9c964d073ffffffffffffffffffffffffffffffffffffffff16838281518110611a00577f4e487b7100000000000000000000000000000000000000000000000000000000600052603260045260246000fd5b602002602001015173ffffffffffffffffffffffffffffffffffffffff1614611b7c576000838281518110611a5e577f4e487b7100000000000000000000000000000000000000000000000000000000600052603260045260246000fd5b60209081029190910101516040517f70a0823100000000000000000000000000000000000000000000000000000000815230600482015273ffffffffffffffffffffffffffffffffffffffff909116906370a082319060240160206040518083038186803b158015611acf57600080fd5b505afa158015611ae3573d6000803e3d6000fd5b505050506040513d601f19601f82011682018060405250810190611b0791906121c8565b90508015611b7a57611b7a8382868581518110611b4d577f4e487b7100000000000000000000000000000000000000000000000000000000600052603260045260246000fd5b602002602001015173ffffffffffffffffffffffffffffffffffffffff16610fec9092919063ffffffff16565b505b80611b8681612382565b915050611993565b733465b8211278505ae9c6b5ba08ecd9af951a689673ffffffffffffffffffffffffffffffffffffffff166302fb0c5e6040518163ffffffff1660e01b815260040160206040518083038186803b158015611be857600080fd5b505afa158015611bfc573d6000803e3d6000fd5b505050506040513d601f19601f82011682018060405250810190611c2091906121a8565b15610fe9576040517f70a08231000000000000000000000000000000000000000000000000000000008152306004820152600090733465b8211278505ae9c6b5ba08ecd9af951a6896906370a082319060240160206040518083038186803b158015611c8b57600080fd5b505afa158015611c9f573d6000803e3d6000fd5b505050506040513d601f19601f82011682018060405250810190611cc391906121c8565b6040517fd9f96e8d00000000000000000000000000000000000000000000000000000000815230600482015290915060009073a537d64881b84faffb9ae43c951eebf368b71cda9063d9f96e8d9060240160206040518083038186803b158015611d2c57600080fd5b505afa158015611d40573d6000803e3d6000fd5b505050506040513d601f19601f82011682018060405250810190611d6491906121c8565b905081158015611d745750600081115b15611e14576040517f47e7ef2400000000000000000000000000000000000000000000000000000000815273ffffffffffffffffffffffffffffffffffffffff8416600482015260248101829052733465b8211278505ae9c6b5ba08ecd9af951a6896906347e7ef2490604401600060405180830381600087803b158015611dfb57600080fd5b505af1158015611e0f573d6000803e3d6000fd5b505050505b6040517fc00007b000000000000000000000000000000000000000000000000000000000815273ffffffffffffffffffffffffffffffffffffffff84166004820152733465b8211278505ae9c6b5ba08ecd9af951a68969063c00007b0906024016112cf565b6060611e898484600085611e91565b949350505050565b606082471015611f23576040517f08c379a000000000000000000000000000000000000000000000000000000000815260206004820152602660248201527f416464726573733a20696e73756666696369656e742062616c616e636520666f60448201527f722063616c6c00000000000000000000000000000000000000000000000000006064820152608401610305565b843b611f8b576040517f08c379a000000000000000000000000000000000000000000000000000000000815260206004820152601d60248201527f416464726573733a2063616c6c20746f206e6f6e2d636f6e74726163740000006044820152606401610305565b6000808673ffffffffffffffffffffffffffffffffffffffff168587604051611fb4919061225b565b60006040518083038185875af1925050503d8060008114611ff1576040519150601f19603f3d011682016040523d82523d6000602084013e611ff6565b606091505b5091509150612006828286612011565b979650505050505050565b60608315612020575081610cfd565b8251156120305782518084602001fd5b816040517f08c379a00000000000000000000000000000000000000000000000000000000081526004016103059190612277565b600060208284031215612075578081fd5b8135610cfd816123fb565b60006020808385031215612092578182fd5b825167ffffffffffffffff8111156120a8578283fd5b8301601f810185136120b8578283fd5b80516120cb6120c682612317565b6122c8565b80828252848201915084840188868560051b87010111156120ea578687fd5b8694505b83851015612115578051612101816123fb565b8352600194909401939185019185016120ee565b50979650505050505050565b60006020808385031215612133578182fd5b825167ffffffffffffffff811115612149578283fd5b8301601f81018513612159578283fd5b80516121676120c682612317565b80828252848201915084840188868560051b8701011115612186578687fd5b8694505b8385101561211557805183526001949094019391850191850161218a565b6000602082840312156121b9578081fd5b81518015158114610cfd578182fd5b6000602082840312156121d9578081fd5b5051919050565b600080604083850312156121f2578081fd5b823591506020830135612204816123fb565b809150509250929050565b600080600060608486031215612223578081fd5b8335925060208401359150604084013561223c816123fb565b809150509250925092565b600080600060608486031215612223578283fd5b6000825161226d818460208701612352565b9190910192915050565b6020815260008251806020840152612296816040850160208701612352565b601f017fffffffffffffffffffffffffffffffffffffffffffffffffffffffffffffffe0169190910160400192915050565b604051601f82017fffffffffffffffffffffffffffffffffffffffffffffffffffffffffffffffe016810167ffffffffffffffff8111828210171561230f5761230f6123cc565b604052919050565b600067ffffffffffffffff821115612331576123316123cc565b5060051b60200190565b60008282101561234d5761234d61239d565b500390565b60005b8381101561236d578181015183820152602001612355565b8381111561237c576000848401525b50505050565b60006000198214156123965761239661239d565b5060010190565b7f4e487b7100000000000000000000000000000000000000000000000000000000600052601160045260246000fd5b7f4e487b7100000000000000000000000000000000000000000000000000000000600052604160045260246000fd5b73ffffffffffffffffffffffffffffffffffffffff81168114610fe957600080fdfea264697066735822122069e34ef58c957f009198609be9fe6de22b31e200884867bfe67fa7617a5b2fed64736f6c6343000804003368747470733a2f2f7265766573742e6d7970696e6174612e636c6f75642f697066732f516d524c65736637437a774c61704a53336157574d397753394871677658385a33367a516857536431754d466d70",
  "linkReferences": {},
  "deployedLinkReferences": {}
}