{
  "_format": "hh-sol-artifact-1",
  "contractName": "VestedEscrowSmartWallet",
  "sourceName": "contracts/VestedEscrowSmartWallet.sol",
  "abi": [
    {
      "inputs": [],
      "stateMutability": "nonpayable",
      "type": "constructor"
    },
    {
      "inputs": [],
      "name": "CONVEX_DEPOSIT_TOKEN",
      "outputs": [
        {
          "internalType": "address",
          "name": "",
          "type": "address"
        }
      ],
      "stateMutability": "view",
      "type": "function"
    },
    {
      "inputs": [],
      "name": "CRV",
      "outputs": [
        {
          "internalType": "address",
          "name": "",
          "type": "address"
        }
      ],
      "stateMutability": "view",
      "type": "function"
    },
    {
      "inputs": [],
      "name": "CURVE_LP",
      "outputs": [
        {
          "internalType": "address",
          "name": "",
          "type": "address"
        }
      ],
      "stateMutability": "view",
      "type": "function"
    },
    {
      "inputs": [],
      "name": "CVX",
      "outputs": [
        {
          "internalType": "address",
          "name": "",
          "type": "address"
        }
      ],
      "stateMutability": "view",
      "type": "function"
    },
    {
      "inputs": [],
      "name": "FXS",
      "outputs": [
        {
          "internalType": "address",
          "name": "",
          "type": "address"
        }
      ],
      "stateMutability": "view",
      "type": "function"
    },
    {
      "inputs": [],
      "name": "REWARDS",
      "outputs": [
        {
          "internalType": "address",
          "name": "",
          "type": "address"
        }
      ],
      "stateMutability": "view",
      "type": "function"
    },
    {
      "inputs": [],
      "name": "STAKING_ADDRESS",
      "outputs": [
        {
          "internalType": "address",
          "name": "",
          "type": "address"
        }
      ],
      "stateMutability": "view",
      "type": "function"
    },
    {
      "inputs": [],
      "name": "STAKING_TOKEN",
      "outputs": [
        {
          "internalType": "address",
          "name": "",
          "type": "address"
        }
      ],
      "stateMutability": "view",
      "type": "function"
    },
    {
      "inputs": [
        {
          "internalType": "address",
          "name": "user",
          "type": "address"
        }
      ],
      "name": "claimRewards",
      "outputs": [],
      "stateMutability": "nonpayable",
      "type": "function"
    },
    {
      "inputs": [],
      "name": "cleanMemory",
      "outputs": [],
      "stateMutability": "nonpayable",
      "type": "function"
    },
    {
      "inputs": [
        {
          "internalType": "uint256",
          "name": "value",
          "type": "uint256"
        },
        {
          "internalType": "uint256",
          "name": "unlockTime",
          "type": "uint256"
        },
        {
          "internalType": "address",
          "name": "user",
          "type": "address"
        }
      ],
      "name": "createLock",
      "outputs": [
        {
          "internalType": "bytes32",
          "name": "kek_id",
          "type": "bytes32"
        }
      ],
      "stateMutability": "nonpayable",
      "type": "function"
    },
    {
      "inputs": [
        {
          "internalType": "uint256",
          "name": "amount",
          "type": "uint256"
        },
        {
          "internalType": "bytes32",
          "name": "kek_id",
          "type": "bytes32"
        },
        {
          "internalType": "address",
          "name": "user",
          "type": "address"
        }
      ],
      "name": "increaseAmount",
      "outputs": [],
      "stateMutability": "nonpayable",
      "type": "function"
    },
    {
      "inputs": [
        {
          "internalType": "uint256",
          "name": "unlockTime",
          "type": "uint256"
        },
        {
          "internalType": "bytes32",
          "name": "kek_id",
          "type": "bytes32"
        },
        {
          "internalType": "address",
          "name": "user",
          "type": "address"
        }
      ],
      "name": "increaseUnlockTime",
      "outputs": [],
      "stateMutability": "nonpayable",
      "type": "function"
    },
    {
      "inputs": [
        {
          "internalType": "bytes32",
          "name": "kek_id",
          "type": "bytes32"
        },
        {
          "internalType": "address",
          "name": "user",
          "type": "address"
        }
      ],
      "name": "withdraw",
      "outputs": [
        {
          "internalType": "uint256",
          "name": "balance",
          "type": "uint256"
        }
      ],
      "stateMutability": "nonpayable",
      "type": "function"
    }
  ],
  "bytecode": "0x60a060405234801561001057600080fd5b5033606081901b60805261245361005c6000396000818161028201528181610589015281816106c601528181610d1c01528181610dc501528181610f4f015261132d01526124536000f3fe608060405234801561001057600080fd5b50600436106100ea5760003560e01c80635aff427d1161008c578063945c914211610066578063945c914214610204578063c0034e0c1461021f578063ef5cfb8c1461023a578063f443faeb1461024d57600080fd5b80635aff427d146101bb578063759cb53b146101ce5780638c20570b146101e957600080fd5b8063200ea222116100c8578063200ea222146101705780633c0672bb1461018b5780633c4f8dd8146101a05780633ff5b85f146101b357600080fd5b80630479d644146100ef578063109bbf05146101345780631b258d501461014f575b600080fd5b61010a734659d5ff63a1e1edd6d5dd9cc315e063c95947d081565b60405173ffffffffffffffffffffffffffffffffffffffff90911681526020015b60405180910390f35b61010a73c07e540dbfeccf7431ea2478eb28a03918c1c30e81565b61016261015d3660046121e0565b610268565b60405190815260200161012b565b61010a733432b6a60d23ca0dfca7761b7ab56459d9c964d081565b61019e61019936600461220f565b610571565b005b6101626101ae366004612247565b6106ac565b61019e610d04565b61019e6101c936600461220f565b610dad565b61010a734e3fbd56cd56c3e72c1403e103b45db9da5b9d2b81565b61010a73a537d64881b84faffb9ae43c951eebf368b71cda81565b61010a73d533a949740bb3306d119cc777fa900ba034cd5281565b61010a733465b8211278505ae9c6b5ba08ecd9af951a689681565b61019e610248366004612064565b610f37565b61010a73f43211935c781d5ca1a41d2041f397b8a7366c7a81565b60003373ffffffffffffffffffffffffffffffffffffffff7f0000000000000000000000000000000000000000000000000000000000000000161461030e576040517f08c379a000000000000000000000000000000000000000000000000000000000815260206004820152600d60248201527f556e617574686f72697a6564210000000000000000000000000000000000000060448201526064015b60405180910390fd5b6040517fe44b9fa50000000000000000000000000000000000000000000000000000000081526004810184905230602482015273a537d64881b84faffb9ae43c951eebf368b71cda9063e44b9fa590604401602060405180830381600087803b15801561037a57600080fd5b505af115801561038e573d6000803e3d6000fd5b505050506040513d601f19601f820116820180604052508101906103b291906121c8565b506040517f70a08231000000000000000000000000000000000000000000000000000000008152306004820152734659d5ff63a1e1edd6d5dd9cc315e063c95947d090633969dfb49082906370a082319060240160206040518083038186803b15801561041e57600080fd5b505afa158015610432573d6000803e3d6000fd5b505050506040513d601f19601f8201168201806040525081019061045691906121c8565b6040518263ffffffff1660e01b815260040161047491815260200190565b600060405180830381600087803b15801561048e57600080fd5b505af11580156104a2573d6000803e3d6000fd5b50506040517f70a0823100000000000000000000000000000000000000000000000000000000815230600482015273f43211935c781d5ca1a41d2041f397b8a7366c7a92506370a08231915060240160206040518083038186803b15801561050957600080fd5b505afa15801561051d573d6000803e3d6000fd5b505050506040513d601f19601f8201168201806040525081019061054191906121c8565b905061056273f43211935c781d5ca1a41d2041f397b8a7366c7a8383610fec565b61056b82611079565b92915050565b3373ffffffffffffffffffffffffffffffffffffffff7f00000000000000000000000000000000000000000000000000000000000000001614610610576040517f08c379a000000000000000000000000000000000000000000000000000000000815260206004820152600d60248201527f556e617574686f72697a656421000000000000000000000000000000000000006044820152606401610305565b6040517fd2fbdc0d000000000000000000000000000000000000000000000000000000008152600481018390526024810184905273a537d64881b84faffb9ae43c951eebf368b71cda9063d2fbdc0d906044015b600060405180830381600087803b15801561067e57600080fd5b505af1158015610692573d6000803e3d6000fd5b5050505061069f81611079565b6106a761132b565b505050565b60003373ffffffffffffffffffffffffffffffffffffffff7f0000000000000000000000000000000000000000000000000000000000000000161461074d576040517f08c379a000000000000000000000000000000000000000000000000000000000815260206004820152600d60248201527f556e617574686f72697a656421000000000000000000000000000000000000006044820152606401610305565b6040517fdd62ed3e00000000000000000000000000000000000000000000000000000000815230600482015273a537d64881b84faffb9ae43c951eebf368b71cda602482015260001990734659d5ff63a1e1edd6d5dd9cc315e063c95947d09063dd62ed3e9060440160206040518083038186803b1580156107ce57600080fd5b505afa1580156107e2573d6000803e3d6000fd5b505050506040513d601f19601f8201168201806040525081019061080691906121c8565b146108c6576040517f095ea7b300000000000000000000000000000000000000000000000000000000815273a537d64881b84faffb9ae43c951eebf368b71cda60048201526000196024820152734659d5ff63a1e1edd6d5dd9cc315e063c95947d09063095ea7b390604401602060405180830381600087803b15801561088c57600080fd5b505af11580156108a0573d6000803e3d6000fd5b505050506040513d601f19601f820116820180604052508101906108c491906121a8565b505b6040517fdd62ed3e000000000000000000000000000000000000000000000000000000008152306004820152734659d5ff63a1e1edd6d5dd9cc315e063c95947d060248201526000199073f43211935c781d5ca1a41d2041f397b8a7366c7a9063dd62ed3e9060440160206040518083038186803b15801561094757600080fd5b505afa15801561095b573d6000803e3d6000fd5b505050506040513d601f19601f8201168201806040525081019061097f91906121c8565b14610a3f576040517f095ea7b3000000000000000000000000000000000000000000000000000000008152734659d5ff63a1e1edd6d5dd9cc315e063c95947d06004820152600019602482015273f43211935c781d5ca1a41d2041f397b8a7366c7a9063095ea7b390604401602060405180830381600087803b158015610a0557600080fd5b505af1158015610a19573d6000803e3d6000fd5b505050506040513d601f19601f82011682018060405250810190610a3d91906121a8565b505b6040517fdd62ed3e000000000000000000000000000000000000000000000000000000008152306004820152734659d5ff63a1e1edd6d5dd9cc315e063c95947d060248201526000199073c07e540dbfeccf7431ea2478eb28a03918c1c30e9063dd62ed3e9060440160206040518083038186803b158015610ac057600080fd5b505afa158015610ad4573d6000803e3d6000fd5b505050506040513d601f19601f82011682018060405250810190610af891906121c8565b14610bb8576040517f095ea7b3000000000000000000000000000000000000000000000000000000008152734659d5ff63a1e1edd6d5dd9cc315e063c95947d06004820152600019602482015273c07e540dbfeccf7431ea2478eb28a03918c1c30e9063095ea7b390604401602060405180830381600087803b158015610b7e57600080fd5b505af1158015610b92573d6000803e3d6000fd5b505050506040513d601f19601f82011682018060405250810190610bb691906121a8565b505b6040517f6e553f6500000000000000000000000000000000000000000000000000000000815260048101859052306024820152734659d5ff63a1e1edd6d5dd9cc315e063c95947d090636e553f6590604401600060405180830381600087803b158015610c2457600080fd5b505af1158015610c38573d6000803e3d6000fd5b5073a537d64881b84faffb9ae43c951eebf368b71cda92506317b18c899150869050610c64428761233b565b6040517fffffffff0000000000000000000000000000000000000000000000000000000060e085901b16815260048101929092526024820152604401602060405180830381600087803b158015610cba57600080fd5b505af1158015610cce573d6000803e3d6000fd5b505050506040513d601f19601f82011682018060405250810190610cf291906121c8565b9050610cfd82611079565b9392505050565b3373ffffffffffffffffffffffffffffffffffffffff7f00000000000000000000000000000000000000000000000000000000000000001614610da3576040517f08c379a000000000000000000000000000000000000000000000000000000000815260206004820152600d60248201527f556e617574686f72697a656421000000000000000000000000000000000000006044820152606401610305565b610dab61132b565b565b3373ffffffffffffffffffffffffffffffffffffffff7f00000000000000000000000000000000000000000000000000000000000000001614610e4c576040517f08c379a000000000000000000000000000000000000000000000000000000000815260206004820152600d60248201527f556e617574686f72697a656421000000000000000000000000000000000000006044820152606401610305565b8215610f2e576040517f6e553f6500000000000000000000000000000000000000000000000000000000815260048101849052306024820152734659d5ff63a1e1edd6d5dd9cc315e063c95947d090636e553f6590604401600060405180830381600087803b158015610ebe57600080fd5b505af1158015610ed2573d6000803e3d6000fd5b50506040517fb85efd06000000000000000000000000000000000000000000000000000000008152600481018590526024810186905273a537d64881b84faffb9ae43c951eebf368b71cda925063b85efd069150604401610664565b61069f81611079565b3373ffffffffffffffffffffffffffffffffffffffff7f00000000000000000000000000000000000000000000000000000000000000001614610fd6576040517f08c379a000000000000000000000000000000000000000000000000000000000815260206004820152600d60248201527f556e617574686f72697a656421000000000000000000000000000000000000006044820152606401610305565b610fe1600182611364565b610fe961132b565b50565b6040805173ffffffffffffffffffffffffffffffffffffffff8416602482015260448082018490528251808303909101815260649091019091526020810180517bffffffffffffffffffffffffffffffffffffffffffffffffffffffff167fa9059cbb000000000000000000000000000000000000000000000000000000001790526106a7908490611720565b733465b8211278505ae9c6b5ba08ecd9af951a689673ffffffffffffffffffffffffffffffffffffffff166302fb0c5e6040518163ffffffff1660e01b815260040160206040518083038186803b1580156110d357600080fd5b505afa1580156110e7573d6000803e3d6000fd5b505050506040513d601f19601f8201168201806040525081019061110b91906121a8565b15610fe9576040517fd9f96e8d00000000000000000000000000000000000000000000000000000000815230600482015260009073a537d64881b84faffb9ae43c951eebf368b71cda9063d9f96e8d9060240160206040518083038186803b15801561117657600080fd5b505afa15801561118a573d6000803e3d6000fd5b505050506040513d601f19601f820116820180604052508101906111ae91906121c8565b6040517f70a08231000000000000000000000000000000000000000000000000000000008152306004820152909150600090733465b8211278505ae9c6b5ba08ecd9af951a6896906370a082319060240160206040518083038186803b15801561121757600080fd5b505afa15801561122b573d6000803e3d6000fd5b505050506040513d601f19601f8201168201806040525081019061124f91906121c8565b905080821061130657733465b8211278505ae9c6b5ba08ecd9af951a68966347e7ef248461127d848661233b565b6040517fffffffff0000000000000000000000000000000000000000000000000000000060e085901b16815273ffffffffffffffffffffffffffffffffffffffff909216600483015260248201526044015b600060405180830381600087803b1580156112e957600080fd5b505af11580156112fd573d6000803e3d6000fd5b50505050505050565b733465b8211278505ae9c6b5ba08ecd9af951a689663f3fef3a38461127d858561233b565b7f000000000000000000000000000000000000000000000000000000000000000073ffffffffffffffffffffffffffffffffffffffff16ff5b811561164c576040517fc00007b000000000000000000000000000000000000000000000000000000000815230600482015273a537d64881b84faffb9ae43c951eebf368b71cda9063c00007b090602401600060405180830381600087803b1580156113cf57600080fd5b505af11580156113e3573d6000803e3d6000fd5b505050506040513d6000823e601f3d9081017fffffffffffffffffffffffffffffffffffffffffffffffffffffffffffffffe01682016040526114299190810190612121565b506040517f6b09169500000000000000000000000000000000000000000000000000000000815230600482015273ffffffffffffffffffffffffffffffffffffffff82166024820152734659d5ff63a1e1edd6d5dd9cc315e063c95947d090636b09169590604401600060405180830381600087803b1580156114ab57600080fd5b505af11580156114bf573d6000803e3d6000fd5b50506040517f70a082310000000000000000000000000000000000000000000000000000000081523060048201526000925073d533a949740bb3306d119cc777fa900ba034cd5291506370a082319060240160206040518083038186803b15801561152957600080fd5b505afa15801561153d573d6000803e3d6000fd5b505050506040513d601f19601f8201168201806040525081019061156191906121c8565b905080156115885761158873d533a949740bb3306d119cc777fa900ba034cd528383610fec565b6040517f70a08231000000000000000000000000000000000000000000000000000000008152306004820152734e3fbd56cd56c3e72c1403e103b45db9da5b9d2b906370a082319060240160206040518083038186803b1580156115eb57600080fd5b505afa1580156115ff573d6000803e3d6000fd5b505050506040513d601f19601f8201168201806040525081019061162391906121c8565b9050801561164a5761164a734e3fbd56cd56c3e72c1403e103b45db9da5b9d2b8383610fec565b505b6116558161182c565b600073a537d64881b84faffb9ae43c951eebf368b71cda73ffffffffffffffffffffffffffffffffffffffff166312edb24c6040518163ffffffff1660e01b815260040160006040518083038186803b1580156116b157600080fd5b505afa1580156116c5573d6000803e3d6000fd5b505050506040513d6000823e601f3d9081017fffffffffffffffffffffffffffffffffffffffffffffffffffffffffffffffe016820160405261170b9190810190612080565b90506117178183611990565b6106a782611b8e565b6000611782826040518060400160405280602081526020017f5361666545524332303a206c6f772d6c6576656c2063616c6c206661696c65648152508573ffffffffffffffffffffffffffffffffffffffff16611e7a9092919063ffffffff16565b8051909150156106a757808060200190518101906117a091906121a8565b6106a7576040517f08c379a000000000000000000000000000000000000000000000000000000000815260206004820152602a60248201527f5361666545524332303a204552433230206f7065726174696f6e20646964206e60448201527f6f742073756363656564000000000000000000000000000000000000000000006064820152608401610305565b6040517f70a08231000000000000000000000000000000000000000000000000000000008152306004820152600090733432b6a60d23ca0dfca7761b7ab56459d9c964d0906370a082319060240160206040518083038186803b15801561189257600080fd5b505afa1580156118a6573d6000803e3d6000fd5b505050506040513d601f19601f820116820180604052508101906118ca91906121c8565b9050801561198c576040517fa9059cbb00000000000000000000000000000000000000000000000000000000815273ffffffffffffffffffffffffffffffffffffffff8316600482015260248101829052733432b6a60d23ca0dfca7761b7ab56459d9c964d09063a9059cbb90604401602060405180830381600087803b15801561195457600080fd5b505af1158015611968573d6000803e3d6000fd5b505050506040513d601f19601f820116820180604052508101906106a791906121a8565b5050565b60005b82518110156106a757733432b6a60d23ca0dfca7761b7ab56459d9c964d073ffffffffffffffffffffffffffffffffffffffff16838281518110611a00577f4e487b7100000000000000000000000000000000000000000000000000000000600052603260045260246000fd5b602002602001015173ffffffffffffffffffffffffffffffffffffffff1614611b7c576000838281518110611a5e577f4e487b7100000000000000000000000000000000000000000000000000000000600052603260045260246000fd5b60209081029190910101516040517f70a0823100000000000000000000000000000000000000000000000000000000815230600482015273ffffffffffffffffffffffffffffffffffffffff909116906370a082319060240160206040518083038186803b158015611acf57600080fd5b505afa158015611ae3573d6000803e3d6000fd5b505050506040513d601f19601f82011682018060405250810190611b0791906121c8565b90508015611b7a57611b7a8382868581518110611b4d577f4e487b7100000000000000000000000000000000000000000000000000000000600052603260045260246000fd5b602002602001015173ffffffffffffffffffffffffffffffffffffffff16610fec9092919063ffffffff16565b505b80611b8681612382565b915050611993565b733465b8211278505ae9c6b5ba08ecd9af951a689673ffffffffffffffffffffffffffffffffffffffff166302fb0c5e6040518163ffffffff1660e01b815260040160206040518083038186803b158015611be857600080fd5b505afa158015611bfc573d6000803e3d6000fd5b505050506040513d601f19601f82011682018060405250810190611c2091906121a8565b15610fe9576040517f70a08231000000000000000000000000000000000000000000000000000000008152306004820152600090733465b8211278505ae9c6b5ba08ecd9af951a6896906370a082319060240160206040518083038186803b158015611c8b57600080fd5b505afa158015611c9f573d6000803e3d6000fd5b505050506040513d601f19601f82011682018060405250810190611cc391906121c8565b6040517fd9f96e8d00000000000000000000000000000000000000000000000000000000815230600482015290915060009073a537d64881b84faffb9ae43c951eebf368b71cda9063d9f96e8d9060240160206040518083038186803b158015611d2c57600080fd5b505afa158015611d40573d6000803e3d6000fd5b505050506040513d601f19601f82011682018060405250810190611d6491906121c8565b905081158015611d745750600081115b15611e14576040517f47e7ef2400000000000000000000000000000000000000000000000000000000815273ffffffffffffffffffffffffffffffffffffffff8416600482015260248101829052733465b8211278505ae9c6b5ba08ecd9af951a6896906347e7ef2490604401600060405180830381600087803b158015611dfb57600080fd5b505af1158015611e0f573d6000803e3d6000fd5b505050505b6040517fc00007b000000000000000000000000000000000000000000000000000000000815273ffffffffffffffffffffffffffffffffffffffff84166004820152733465b8211278505ae9c6b5ba08ecd9af951a68969063c00007b0906024016112cf565b6060611e898484600085611e91565b949350505050565b606082471015611f23576040517f08c379a000000000000000000000000000000000000000000000000000000000815260206004820152602660248201527f416464726573733a20696e73756666696369656e742062616c616e636520666f60448201527f722063616c6c00000000000000000000000000000000000000000000000000006064820152608401610305565b843b611f8b576040517f08c379a000000000000000000000000000000000000000000000000000000000815260206004820152601d60248201527f416464726573733a2063616c6c20746f206e6f6e2d636f6e74726163740000006044820152606401610305565b6000808673ffffffffffffffffffffffffffffffffffffffff168587604051611fb4919061225b565b60006040518083038185875af1925050503d8060008114611ff1576040519150601f19603f3d011682016040523d82523d6000602084013e611ff6565b606091505b5091509150612006828286612011565b979650505050505050565b60608315612020575081610cfd565b8251156120305782518084602001fd5b816040517f08c379a00000000000000000000000000000000000000000000000000000000081526004016103059190612277565b600060208284031215612075578081fd5b8135610cfd816123fb565b60006020808385031215612092578182fd5b825167ffffffffffffffff8111156120a8578283fd5b8301601f810185136120b8578283fd5b80516120cb6120c682612317565b6122c8565b80828252848201915084840188868560051b87010111156120ea578687fd5b8694505b83851015612115578051612101816123fb565b8352600194909401939185019185016120ee565b50979650505050505050565b60006020808385031215612133578182fd5b825167ffffffffffffffff811115612149578283fd5b8301601f81018513612159578283fd5b80516121676120c682612317565b80828252848201915084840188868560051b8701011115612186578687fd5b8694505b8385101561211557805183526001949094019391850191850161218a565b6000602082840312156121b9578081fd5b81518015158114610cfd578182fd5b6000602082840312156121d9578081fd5b5051919050565b600080604083850312156121f2578081fd5b823591506020830135612204816123fb565b809150509250929050565b600080600060608486031215612223578081fd5b8335925060208401359150604084013561223c816123fb565b809150509250925092565b600080600060608486031215612223578283fd5b6000825161226d818460208701612352565b9190910192915050565b6020815260008251806020840152612296816040850160208701612352565b601f017fffffffffffffffffffffffffffffffffffffffffffffffffffffffffffffffe0169190910160400192915050565b604051601f82017fffffffffffffffffffffffffffffffffffffffffffffffffffffffffffffffe016810167ffffffffffffffff8111828210171561230f5761230f6123cc565b604052919050565b600067ffffffffffffffff821115612331576123316123cc565b5060051b60200190565b60008282101561234d5761234d61239d565b500390565b60005b8381101561236d578181015183820152602001612355565b8381111561237c576000848401525b50505050565b60006000198214156123965761239661239d565b5060010190565b7f4e487b7100000000000000000000000000000000000000000000000000000000600052601160045260246000fd5b7f4e487b7100000000000000000000000000000000000000000000000000000000600052604160045260246000fd5b73ffffffffffffffffffffffffffffffffffffffff81168114610fe957600080fdfea264697066735822122069e34ef58c957f009198609be9fe6de22b31e200884867bfe67fa7617a5b2fed64736f6c63430008040033",
  "linkReferences": {},
  "deployedLinkReferences": {}
}