{
  "_format": "hh-sol-artifact-1",
  "contractName": "VestedEscrowSmartWallet",
  "sourceName": "contracts/VestedEscrowSmartWallet.sol",
  "abi": [
    {
      "inputs": [],
      "stateMutability": "nonpayable",
      "type": "constructor"
    },
    {
      "inputs": [],
      "name": "CONVEX_DEPOSIT_TOKEN",
      "outputs": [
        {
          "internalType": "address",
          "name": "",
          "type": "address"
        }
      ],
      "stateMutability": "view",
      "type": "function"
    },
    {
      "inputs": [],
      "name": "CRV",
      "outputs": [
        {
          "internalType": "address",
          "name": "",
          "type": "address"
        }
      ],
      "stateMutability": "view",
      "type": "function"
    },
    {
      "inputs": [],
      "name": "CURVE_LP",
      "outputs": [
        {
          "internalType": "address",
          "name": "",
          "type": "address"
        }
      ],
      "stateMutability": "view",
      "type": "function"
    },
    {
      "inputs": [],
      "name": "CVX",
      "outputs": [
        {
          "internalType": "address",
          "name": "",
          "type": "address"
        }
      ],
      "stateMutability": "view",
      "type": "function"
    },
    {
      "inputs": [],
      "name": "FXS",
      "outputs": [
        {
          "internalType": "address",
          "name": "",
          "type": "address"
        }
      ],
      "stateMutability": "view",
      "type": "function"
    },
    {
      "inputs": [],
      "name": "REWARDS",
      "outputs": [
        {
          "internalType": "address",
          "name": "",
          "type": "address"
        }
      ],
      "stateMutability": "view",
      "type": "function"
    },
    {
      "inputs": [],
      "name": "STAKING_ADDRESS",
      "outputs": [
        {
          "internalType": "address",
          "name": "",
          "type": "address"
        }
      ],
      "stateMutability": "view",
      "type": "function"
    },
    {
      "inputs": [],
      "name": "STAKING_TOKEN",
      "outputs": [
        {
          "internalType": "address",
          "name": "",
          "type": "address"
        }
      ],
      "stateMutability": "view",
      "type": "function"
    },
    {
      "inputs": [
        {
          "internalType": "address",
          "name": "user",
          "type": "address"
        }
      ],
      "name": "claimRewards",
      "outputs": [],
      "stateMutability": "nonpayable",
      "type": "function"
    },
    {
      "inputs": [],
      "name": "cleanMemory",
      "outputs": [],
      "stateMutability": "nonpayable",
      "type": "function"
    },
    {
      "inputs": [
        {
          "internalType": "uint256",
          "name": "value",
          "type": "uint256"
        },
        {
          "internalType": "uint256",
          "name": "unlockTime",
          "type": "uint256"
        },
        {
          "internalType": "address",
          "name": "user",
          "type": "address"
        }
      ],
      "name": "createLock",
      "outputs": [
        {
          "internalType": "bytes32",
          "name": "kek_id",
          "type": "bytes32"
        }
      ],
      "stateMutability": "nonpayable",
      "type": "function"
    },
    {
      "inputs": [
        {
          "internalType": "uint256",
          "name": "amount",
          "type": "uint256"
        },
        {
          "internalType": "bytes32",
          "name": "kek_id",
          "type": "bytes32"
        },
        {
          "internalType": "address",
          "name": "user",
          "type": "address"
        }
      ],
      "name": "increaseAmount",
      "outputs": [],
      "stateMutability": "nonpayable",
      "type": "function"
    },
    {
      "inputs": [
        {
          "internalType": "uint256",
          "name": "unlockTime",
          "type": "uint256"
        },
        {
          "internalType": "bytes32",
          "name": "kek_id",
          "type": "bytes32"
        },
        {
          "internalType": "address",
          "name": "user",
          "type": "address"
        }
      ],
      "name": "increaseUnlockTime",
      "outputs": [],
      "stateMutability": "nonpayable",
      "type": "function"
    },
    {
      "inputs": [
        {
          "internalType": "bytes32",
          "name": "kek_id",
          "type": "bytes32"
        },
        {
          "internalType": "address",
          "name": "user",
          "type": "address"
        }
      ],
      "name": "withdraw",
      "outputs": [
        {
          "internalType": "uint256",
          "name": "balance",
          "type": "uint256"
        }
      ],
      "stateMutability": "nonpayable",
      "type": "function"
    }
  ],
  "bytecode": "0x60a060405234801561001057600080fd5b503360805260805161229861005a600039600081816102820152818161055c0152818161069901528181610c8601528181610d2f01528181610eb9015261126a01526122986000f3fe608060405234801561001057600080fd5b50600436106100ea5760003560e01c80635aff427d1161008c578063945c914211610066578063945c914214610204578063c0034e0c1461021f578063ef5cfb8c1461023a578063f443faeb1461024d57600080fd5b80635aff427d146101bb578063759cb53b146101ce5780638c20570b146101e957600080fd5b8063200ea222116100c8578063200ea222146101705780633c0672bb1461018b5780633c4f8dd8146101a05780633ff5b85f146101b357600080fd5b80630479d644146100ef578063109bbf05146101345780631b258d501461014f575b600080fd5b61010a734659d5ff63a1e1edd6d5dd9cc315e063c95947d081565b60405173ffffffffffffffffffffffffffffffffffffffff90911681526020015b60405180910390f35b61010a73c07e540dbfeccf7431ea2478eb28a03918c1c30e81565b61016261015d366004611eb8565b610268565b60405190815260200161012b565b61010a733432b6a60d23ca0dfca7761b7ab56459d9c964d081565b61019e610199366004611ee8565b610544565b005b6101626101ae366004611ee8565b61067f565b61019e610c6e565b61019e6101c9366004611ee8565b610d17565b61010a734e3fbd56cd56c3e72c1403e103b45db9da5b9d2b81565b61010a73a537d64881b84faffb9ae43c951eebf368b71cda81565b61010a73d533a949740bb3306d119cc777fa900ba034cd5281565b61010a733465b8211278505ae9c6b5ba08ecd9af951a689681565b61019e610248366004611f21565b610ea1565b61010a73f43211935c781d5ca1a41d2041f397b8a7366c7a81565b60003373ffffffffffffffffffffffffffffffffffffffff7f0000000000000000000000000000000000000000000000000000000000000000161461030e576040517f08c379a000000000000000000000000000000000000000000000000000000000815260206004820152600d60248201527f556e617574686f72697a6564210000000000000000000000000000000000000060448201526064015b60405180910390fd5b6040517fe44b9fa50000000000000000000000000000000000000000000000000000000081526004810184905230602482015273a537d64881b84faffb9ae43c951eebf368b71cda9063e44b9fa5906044016020604051808303816000875af115801561037f573d6000803e3d6000fd5b505050506040513d601f19601f820116820180604052508101906103a39190611f3e565b506040517f70a08231000000000000000000000000000000000000000000000000000000008152306004820152734659d5ff63a1e1edd6d5dd9cc315e063c95947d090633969dfb49082906370a0823190602401602060405180830381865afa158015610414573d6000803e3d6000fd5b505050506040513d601f19601f820116820180604052508101906104389190611f3e565b6040518263ffffffff1660e01b815260040161045691815260200190565b600060405180830381600087803b15801561047057600080fd5b505af1158015610484573d6000803e3d6000fd5b50506040517f70a0823100000000000000000000000000000000000000000000000000000000815230600482015273f43211935c781d5ca1a41d2041f397b8a7366c7a92506370a082319150602401602060405180830381865afa1580156104f0573d6000803e3d6000fd5b505050506040513d601f19601f820116820180604052508101906105149190611f3e565b905061053573f43211935c781d5ca1a41d2041f397b8a7366c7a8383610f56565b61053e82610fe3565b92915050565b3373ffffffffffffffffffffffffffffffffffffffff7f000000000000000000000000000000000000000000000000000000000000000016146105e3576040517f08c379a000000000000000000000000000000000000000000000000000000000815260206004820152600d60248201527f556e617574686f72697a656421000000000000000000000000000000000000006044820152606401610305565b6040517fd2fbdc0d000000000000000000000000000000000000000000000000000000008152600481018390526024810184905273a537d64881b84faffb9ae43c951eebf368b71cda9063d2fbdc0d906044015b600060405180830381600087803b15801561065157600080fd5b505af1158015610665573d6000803e3d6000fd5b5050505061067281610fe3565b61067a611268565b505050565b60003373ffffffffffffffffffffffffffffffffffffffff7f00000000000000000000000000000000000000000000000000000000000000001614610720576040517f08c379a000000000000000000000000000000000000000000000000000000000815260206004820152600d60248201527f556e617574686f72697a656421000000000000000000000000000000000000006044820152606401610305565b6040517fdd62ed3e00000000000000000000000000000000000000000000000000000000815230600482015273a537d64881b84faffb9ae43c951eebf368b71cda602482015260001990734659d5ff63a1e1edd6d5dd9cc315e063c95947d09063dd62ed3e90604401602060405180830381865afa1580156107a6573d6000803e3d6000fd5b505050506040513d601f19601f820116820180604052508101906107ca9190611f3e565b1461087b576040517f095ea7b300000000000000000000000000000000000000000000000000000000815273a537d64881b84faffb9ae43c951eebf368b71cda60048201526000196024820152734659d5ff63a1e1edd6d5dd9cc315e063c95947d09063095ea7b3906044016020604051808303816000875af1158015610855573d6000803e3d6000fd5b505050506040513d601f19601f820116820180604052508101906108799190611f57565b505b6040517fdd62ed3e000000000000000000000000000000000000000000000000000000008152306004820152734659d5ff63a1e1edd6d5dd9cc315e063c95947d060248201526000199073f43211935c781d5ca1a41d2041f397b8a7366c7a9063dd62ed3e90604401602060405180830381865afa158015610901573d6000803e3d6000fd5b505050506040513d601f19601f820116820180604052508101906109259190611f3e565b146109d6576040517f095ea7b3000000000000000000000000000000000000000000000000000000008152734659d5ff63a1e1edd6d5dd9cc315e063c95947d06004820152600019602482015273f43211935c781d5ca1a41d2041f397b8a7366c7a9063095ea7b3906044016020604051808303816000875af11580156109b0573d6000803e3d6000fd5b505050506040513d601f19601f820116820180604052508101906109d49190611f57565b505b6040517fdd62ed3e000000000000000000000000000000000000000000000000000000008152306004820152734659d5ff63a1e1edd6d5dd9cc315e063c95947d060248201526000199073c07e540dbfeccf7431ea2478eb28a03918c1c30e9063dd62ed3e90604401602060405180830381865afa158015610a5c573d6000803e3d6000fd5b505050506040513d601f19601f82011682018060405250810190610a809190611f3e565b14610b31576040517f095ea7b3000000000000000000000000000000000000000000000000000000008152734659d5ff63a1e1edd6d5dd9cc315e063c95947d06004820152600019602482015273c07e540dbfeccf7431ea2478eb28a03918c1c30e9063095ea7b3906044016020604051808303816000875af1158015610b0b573d6000803e3d6000fd5b505050506040513d601f19601f82011682018060405250810190610b2f9190611f57565b505b6040517f6e553f6500000000000000000000000000000000000000000000000000000000815260048101859052306024820152734659d5ff63a1e1edd6d5dd9cc315e063c95947d090636e553f6590604401600060405180830381600087803b158015610b9d57600080fd5b505af1158015610bb1573d6000803e3d6000fd5b5073a537d64881b84faffb9ae43c951eebf368b71cda92506317b18c899150869050610bdd4287611fa8565b6040517fffffffff0000000000000000000000000000000000000000000000000000000060e085901b168152600481019290925260248201526044016020604051808303816000875af1158015610c38573d6000803e3d6000fd5b505050506040513d601f19601f82011682018060405250810190610c5c9190611f3e565b9050610c6782610fe3565b9392505050565b3373ffffffffffffffffffffffffffffffffffffffff7f00000000000000000000000000000000000000000000000000000000000000001614610d0d576040517f08c379a000000000000000000000000000000000000000000000000000000000815260206004820152600d60248201527f556e617574686f72697a656421000000000000000000000000000000000000006044820152606401610305565b610d15611268565b565b3373ffffffffffffffffffffffffffffffffffffffff7f00000000000000000000000000000000000000000000000000000000000000001614610db6576040517f08c379a000000000000000000000000000000000000000000000000000000000815260206004820152600d60248201527f556e617574686f72697a656421000000000000000000000000000000000000006044820152606401610305565b8215610e98576040517f6e553f6500000000000000000000000000000000000000000000000000000000815260048101849052306024820152734659d5ff63a1e1edd6d5dd9cc315e063c95947d090636e553f6590604401600060405180830381600087803b158015610e2857600080fd5b505af1158015610e3c573d6000803e3d6000fd5b50506040517fb85efd06000000000000000000000000000000000000000000000000000000008152600481018590526024810186905273a537d64881b84faffb9ae43c951eebf368b71cda925063b85efd069150604401610637565b61067281610fe3565b3373ffffffffffffffffffffffffffffffffffffffff7f00000000000000000000000000000000000000000000000000000000000000001614610f40576040517f08c379a000000000000000000000000000000000000000000000000000000000815260206004820152600d60248201527f556e617574686f72697a656421000000000000000000000000000000000000006044820152606401610305565b610f4b6001826112a1565b610f53611268565b50565b6040805173ffffffffffffffffffffffffffffffffffffffff8416602482015260448082018490528251808303909101815260649091019091526020810180517bffffffffffffffffffffffffffffffffffffffffffffffffffffffff167fa9059cbb0000000000000000000000000000000000000000000000000000000017905261067a908490611621565b733465b8211278505ae9c6b5ba08ecd9af951a689673ffffffffffffffffffffffffffffffffffffffff166302fb0c5e6040518163ffffffff1660e01b8152600401602060405180830381865afa158015611042573d6000803e3d6000fd5b505050506040513d601f19601f820116820180604052508101906110669190611f57565b15610f53576040517fd9f96e8d00000000000000000000000000000000000000000000000000000000815230600482015260009073a537d64881b84faffb9ae43c951eebf368b71cda9063d9f96e8d90602401602060405180830381865afa1580156110d6573d6000803e3d6000fd5b505050506040513d601f19601f820116820180604052508101906110fa9190611f3e565b6040517f70a08231000000000000000000000000000000000000000000000000000000008152306004820152909150600090733465b8211278505ae9c6b5ba08ecd9af951a6896906370a0823190602401602060405180830381865afa158015611168573d6000803e3d6000fd5b505050506040513d601f19601f8201168201806040525081019061118c9190611f3e565b905080821061124357733465b8211278505ae9c6b5ba08ecd9af951a68966347e7ef24846111ba8486611fa8565b6040517fffffffff0000000000000000000000000000000000000000000000000000000060e085901b16815273ffffffffffffffffffffffffffffffffffffffff909216600483015260248201526044015b600060405180830381600087803b15801561122657600080fd5b505af115801561123a573d6000803e3d6000fd5b50505050505050565b733465b8211278505ae9c6b5ba08ecd9af951a689663f3fef3a3846111ba8585611fa8565b7f000000000000000000000000000000000000000000000000000000000000000073ffffffffffffffffffffffffffffffffffffffff16ff5b811561155c576040517fc00007b000000000000000000000000000000000000000000000000000000000815230600482015273a537d64881b84faffb9ae43c951eebf368b71cda9063c00007b0906024016000604051808303816000875af1158015611311573d6000803e3d6000fd5b505050506040513d6000823e601f3d9081017fffffffffffffffffffffffffffffffffffffffffffffffffffffffffffffffe01682016040526113579190810190612061565b506040517f6b09169500000000000000000000000000000000000000000000000000000000815230600482015273ffffffffffffffffffffffffffffffffffffffff82166024820152734659d5ff63a1e1edd6d5dd9cc315e063c95947d090636b09169590604401600060405180830381600087803b1580156113d957600080fd5b505af11580156113ed573d6000803e3d6000fd5b50506040517f70a082310000000000000000000000000000000000000000000000000000000081523060048201526000925073d533a949740bb3306d119cc777fa900ba034cd5291506370a0823190602401602060405180830381865afa15801561145c573d6000803e3d6000fd5b505050506040513d601f19601f820116820180604052508101906114809190611f3e565b905080156114a7576114a773d533a949740bb3306d119cc777fa900ba034cd528383610f56565b6040517f70a08231000000000000000000000000000000000000000000000000000000008152306004820152734e3fbd56cd56c3e72c1403e103b45db9da5b9d2b906370a0823190602401602060405180830381865afa15801561150f573d6000803e3d6000fd5b505050506040513d601f19601f820116820180604052508101906115339190611f3e565b9050801561155a5761155a734e3fbd56cd56c3e72c1403e103b45db9da5b9d2b8383610f56565b505b6115658161172d565b600073a537d64881b84faffb9ae43c951eebf368b71cda73ffffffffffffffffffffffffffffffffffffffff166312edb24c6040518163ffffffff1660e01b8152600401600060405180830381865afa1580156115c6573d6000803e3d6000fd5b505050506040513d6000823e601f3d9081017fffffffffffffffffffffffffffffffffffffffffffffffffffffffffffffffe016820160405261160c91908101906120ec565b90506116188183611873565b61067a826119ed565b6000611683826040518060400160405280602081526020017f5361666545524332303a206c6f772d6c6576656c2063616c6c206661696c65648152508573ffffffffffffffffffffffffffffffffffffffff16611cac9092919063ffffffff16565b80519091501561067a57808060200190518101906116a19190611f57565b61067a576040517f08c379a000000000000000000000000000000000000000000000000000000000815260206004820152602a60248201527f5361666545524332303a204552433230206f7065726174696f6e20646964206e60448201527f6f742073756363656564000000000000000000000000000000000000000000006064820152608401610305565b6040517f70a08231000000000000000000000000000000000000000000000000000000008152306004820152600090733432b6a60d23ca0dfca7761b7ab56459d9c964d0906370a0823190602401602060405180830381865afa158015611798573d6000803e3d6000fd5b505050506040513d601f19601f820116820180604052508101906117bc9190611f3e565b9050801561186f576040517fa9059cbb00000000000000000000000000000000000000000000000000000000815273ffffffffffffffffffffffffffffffffffffffff8316600482015260248101829052733432b6a60d23ca0dfca7761b7ab56459d9c964d09063a9059cbb906044016020604051808303816000875af115801561184b573d6000803e3d6000fd5b505050506040513d601f19601f8201168201806040525081019061067a9190611f57565b5050565b60005b825181101561067a57733432b6a60d23ca0dfca7761b7ab56459d9c964d073ffffffffffffffffffffffffffffffffffffffff168382815181106118bc576118bc61217b565b602002602001015173ffffffffffffffffffffffffffffffffffffffff16146119db5760008382815181106118f3576118f361217b565b60209081029190910101516040517f70a0823100000000000000000000000000000000000000000000000000000000815230600482015273ffffffffffffffffffffffffffffffffffffffff909116906370a0823190602401602060405180830381865afa158015611969573d6000803e3d6000fd5b505050506040513d601f19601f8201168201806040525081019061198d9190611f3e565b905080156119d9576119d983828685815181106119ac576119ac61217b565b602002602001015173ffffffffffffffffffffffffffffffffffffffff16610f569092919063ffffffff16565b505b806119e5816121aa565b915050611876565b733465b8211278505ae9c6b5ba08ecd9af951a689673ffffffffffffffffffffffffffffffffffffffff166302fb0c5e6040518163ffffffff1660e01b8152600401602060405180830381865afa158015611a4c573d6000803e3d6000fd5b505050506040513d601f19601f82011682018060405250810190611a709190611f57565b15610f53576040517f70a08231000000000000000000000000000000000000000000000000000000008152306004820152600090733465b8211278505ae9c6b5ba08ecd9af951a6896906370a0823190602401602060405180830381865afa158015611ae0573d6000803e3d6000fd5b505050506040513d601f19601f82011682018060405250810190611b049190611f3e565b6040517fd9f96e8d00000000000000000000000000000000000000000000000000000000815230600482015290915060009073a537d64881b84faffb9ae43c951eebf368b71cda9063d9f96e8d90602401602060405180830381865afa158015611b72573d6000803e3d6000fd5b505050506040513d601f19601f82011682018060405250810190611b969190611f3e565b905081158015611ba65750600081115b15611c46576040517f47e7ef2400000000000000000000000000000000000000000000000000000000815273ffffffffffffffffffffffffffffffffffffffff8416600482015260248101829052733465b8211278505ae9c6b5ba08ecd9af951a6896906347e7ef2490604401600060405180830381600087803b158015611c2d57600080fd5b505af1158015611c41573d6000803e3d6000fd5b505050505b6040517fc00007b000000000000000000000000000000000000000000000000000000000815273ffffffffffffffffffffffffffffffffffffffff84166004820152733465b8211278505ae9c6b5ba08ecd9af951a68969063c00007b09060240161120c565b6060611cbb8484600085611cc3565b949350505050565b606082471015611d55576040517f08c379a000000000000000000000000000000000000000000000000000000000815260206004820152602660248201527f416464726573733a20696e73756666696369656e742062616c616e636520666f60448201527f722063616c6c00000000000000000000000000000000000000000000000000006064820152608401610305565b843b611dbd576040517f08c379a000000000000000000000000000000000000000000000000000000000815260206004820152601d60248201527f416464726573733a2063616c6c20746f206e6f6e2d636f6e74726163740000006044820152606401610305565b6000808673ffffffffffffffffffffffffffffffffffffffff168587604051611de691906121f5565b60006040518083038185875af1925050503d8060008114611e23576040519150601f19603f3d011682016040523d82523d6000602084013e611e28565b606091505b5091509150611e38828286611e43565b979650505050505050565b60608315611e52575081610c67565b825115611e625782518084602001fd5b816040517f08c379a00000000000000000000000000000000000000000000000000000000081526004016103059190612211565b73ffffffffffffffffffffffffffffffffffffffff81168114610f5357600080fd5b60008060408385031215611ecb57600080fd5b823591506020830135611edd81611e96565b809150509250929050565b600080600060608486031215611efd57600080fd5b83359250602084013591506040840135611f1681611e96565b809150509250925092565b600060208284031215611f3357600080fd5b8135610c6781611e96565b600060208284031215611f5057600080fd5b5051919050565b600060208284031215611f6957600080fd5b81518015158114610c6757600080fd5b7f4e487b7100000000000000000000000000000000000000000000000000000000600052601160045260246000fd5b600082821015611fba57611fba611f79565b500390565b7f4e487b7100000000000000000000000000000000000000000000000000000000600052604160045260246000fd5b604051601f82017fffffffffffffffffffffffffffffffffffffffffffffffffffffffffffffffe016810167ffffffffffffffff8111828210171561203557612035611fbf565b604052919050565b600067ffffffffffffffff82111561205757612057611fbf565b5060051b60200190565b6000602080838503121561207457600080fd5b825167ffffffffffffffff81111561208b57600080fd5b8301601f8101851361209c57600080fd5b80516120af6120aa8261203d565b611fee565b81815260059190911b820183019083810190878311156120ce57600080fd5b928401925b82841015611e38578351825292840192908401906120d3565b600060208083850312156120ff57600080fd5b825167ffffffffffffffff81111561211657600080fd5b8301601f8101851361212757600080fd5b80516121356120aa8261203d565b81815260059190911b8201830190838101908783111561215457600080fd5b928401925b82841015611e3857835161216c81611e96565b82529284019290840190612159565b7f4e487b7100000000000000000000000000000000000000000000000000000000600052603260045260246000fd5b60006000198214156121be576121be611f79565b5060010190565b60005b838110156121e05781810151838201526020016121c8565b838111156121ef576000848401525b50505050565b600082516122078184602087016121c5565b9190910192915050565b60208152600082518060208401526122308160408501602087016121c5565b601f017fffffffffffffffffffffffffffffffffffffffffffffffffffffffffffffffe016919091016040019291505056fea26469706673582212201a8cb0a9acd6bc5bdefbfc739d38999d17e5afcf857d4f5a956d9e06c6d1ed7164736f6c634300080a0033",
  "linkReferences": {},
  "deployedLinkReferences": {}
}